{
  "abi": [
    {
      "inputs": [
        {
          "internalType": "address",
          "name": "_hypercert",
          "type": "address"
        },
        {
          "internalType": "address",
          "name": "_defaultToken",
          "type": "address"
        }
      ],
      "stateMutability": "nonpayable",
      "type": "constructor"
    },
    {
      "inputs": [],
      "name": "GrantNotExist",
      "type": "error"
    },
    {
      "inputs": [
        {
          "internalType": "uint256",
          "name": "_totalCheck",
          "type": "uint256"
        },
        {
          "internalType": "uint256",
          "name": "_cumulativeTotal",
          "type": "uint256"
        }
      ],
      "name": "TotalIsNotEqual",
      "type": "error"
    },
    {
      "anonymous": false,
      "inputs": [
        {
          "indexed": true,
          "internalType": "address",
          "name": "_from",
          "type": "address"
        },
        {
          "indexed": false,
          "internalType": "uint256[]",
          "name": "_grantId",
          "type": "uint256[]"
        },
        {
          "indexed": false,
          "internalType": "uint256[]",
          "name": "_value",
          "type": "uint256[]"
        },
        {
          "indexed": false,
          "internalType": "uint256",
          "name": "_cumulativeTotal",
          "type": "uint256"
        }
      ],
      "name": "FundsDeposited",
      "type": "event"
    },
    {
      "anonymous": false,
      "inputs": [
        {
          "indexed": false,
          "internalType": "uint256",
          "name": "_treasuryAmount",
          "type": "uint256"
        },
        {
          "indexed": false,
          "internalType": "uint256",
          "name": "_qFPoolAmount",
          "type": "uint256"
        }
      ],
      "name": "FundsTransferredToTreasuryAndQFPools",
      "type": "event"
    },
    {
      "anonymous": false,
      "inputs": [
        {
          "indexed": true,
          "internalType": "uint256",
          "name": "_grantId",
          "type": "uint256"
        },
        {
          "indexed": false,
          "internalType": "uint256",
          "name": "_amount",
          "type": "uint256"
        },
        {
          "indexed": true,
          "internalType": "address",
          "name": "_creator",
          "type": "address"
        }
      ],
      "name": "FundsWithdrawed",
      "type": "event"
    },
    {
      "anonymous": false,
      "inputs": [
        {
          "indexed": true,
          "internalType": "address",
          "name": "previousOwner",
          "type": "address"
        },
        {
          "indexed": true,
          "internalType": "address",
          "name": "newOwner",
          "type": "address"
        }
      ],
      "name": "OwnershipTransferred",
      "type": "event"
    },
    {
      "anonymous": false,
      "inputs": [
        {
          "indexed": false,
          "internalType": "uint256",
          "name": "_amount",
          "type": "uint256"
        },
        {
          "indexed": true,
          "internalType": "address",
          "name": "_address",
          "type": "address"
        }
      ],
      "name": "Withdrawed",
      "type": "event"
    },
    {
      "inputs": [
        {
          "internalType": "address",
          "name": "_token",
          "type": "address"
        }
      ],
      "name": "allowToken",
      "outputs": [],
      "stateMutability": "nonpayable",
      "type": "function"
    },
    {
      "inputs": [
        {
          "internalType": "address",
          "name": "",
          "type": "address"
        }
      ],
      "name": "allowedTokens",
      "outputs": [
        {
          "internalType": "bool",
          "name": "",
          "type": "bool"
        }
      ],
      "stateMutability": "view",
      "type": "function"
    },
    {
      "inputs": [
        {
          "internalType": "uint256[]",
          "name": "_grantIds",
          "type": "uint256[]"
        },
        {
          "internalType": "uint256[]",
          "name": "_depositFunds",
          "type": "uint256[]"
        },
        {
          "internalType": "uint256",
          "name": "_cumulativeTotal",
          "type": "uint256"
        },
        {
          "internalType": "address",
          "name": "_token",
          "type": "address"
        }
      ],
      "name": "depositFunds",
      "outputs": [],
      "stateMutability": "nonpayable",
      "type": "function"
    },
    {
      "inputs": [],
      "name": "donationPoolFunds",
      "outputs": [
        {
          "internalType": "uint256",
          "name": "",
          "type": "uint256"
        }
      ],
      "stateMutability": "view",
      "type": "function"
    },
    {
      "inputs": [
        {
          "internalType": "uint256",
          "name": "",
          "type": "uint256"
        }
      ],
      "name": "donationPoolFundsByGrantId",
      "outputs": [
        {
          "internalType": "uint256",
          "name": "",
          "type": "uint256"
        }
      ],
      "stateMutability": "view",
      "type": "function"
    },
    {
      "inputs": [
        {
          "internalType": "address",
          "name": "",
          "type": "address"
        },
        {
          "internalType": "uint256",
          "name": "",
          "type": "uint256"
        }
      ],
      "name": "fundsDepositedByAddress",
      "outputs": [
        {
          "internalType": "uint256",
          "name": "",
          "type": "uint256"
        }
      ],
      "stateMutability": "view",
      "type": "function"
    },
    {
      "inputs": [],
      "name": "hypercert",
      "outputs": [
        {
          "internalType": "contract Hypercert",
          "name": "",
          "type": "address"
        }
      ],
      "stateMutability": "view",
      "type": "function"
    },
    {
      "inputs": [],
      "name": "owner",
      "outputs": [
        {
          "internalType": "address",
          "name": "",
          "type": "address"
        }
      ],
      "stateMutability": "view",
      "type": "function"
    },
    {
      "inputs": [],
      "name": "qFAddress",
      "outputs": [
        {
          "internalType": "address",
          "name": "",
          "type": "address"
        }
      ],
      "stateMutability": "view",
      "type": "function"
    },
    {
      "inputs": [
        {
          "internalType": "address",
          "name": "_token",
          "type": "address"
        }
      ],
      "name": "qFWithdraw",
      "outputs": [],
      "stateMutability": "nonpayable",
      "type": "function"
    },
    {
      "inputs": [],
      "name": "quadraticFundingPoolFunds",
      "outputs": [
        {
          "internalType": "uint256",
          "name": "",
          "type": "uint256"
        }
      ],
      "stateMutability": "view",
      "type": "function"
    },
    {
      "inputs": [],
      "name": "quadraticFundingPoolShare",
      "outputs": [
        {
          "internalType": "uint256",
          "name": "",
          "type": "uint256"
        }
      ],
      "stateMutability": "view",
      "type": "function"
    },
    {
      "inputs": [],
      "name": "renounceOwnership",
      "outputs": [],
      "stateMutability": "nonpayable",
      "type": "function"
    },
    {
      "inputs": [
        {
          "internalType": "contract Hypercert",
          "name": "_hypercertAddress",
          "type": "address"
        }
      ],
      "name": "setHypercertAddress",
      "outputs": [],
      "stateMutability": "nonpayable",
      "type": "function"
    },
    {
      "inputs": [
        {
          "internalType": "address",
          "name": "_qFAddress",
          "type": "address"
        }
      ],
      "name": "setQFAddress",
      "outputs": [],
      "stateMutability": "nonpayable",
      "type": "function"
    },
    {
      "inputs": [
        {
          "internalType": "uint256",
          "name": "_percent",
          "type": "uint256"
        }
      ],
      "name": "setQFPoolShare",
      "outputs": [],
      "stateMutability": "nonpayable",
      "type": "function"
    },
    {
      "inputs": [
        {
          "internalType": "address",
          "name": "_treasuryAddress",
          "type": "address"
        }
      ],
      "name": "setTreasuryAddress",
      "outputs": [],
      "stateMutability": "nonpayable",
      "type": "function"
    },
    {
      "inputs": [
        {
          "internalType": "uint256",
          "name": "_percent",
          "type": "uint256"
        }
      ],
      "name": "setTreasuryPoolShare",
      "outputs": [],
      "stateMutability": "nonpayable",
      "type": "function"
    },
    {
      "inputs": [
        {
          "internalType": "address",
          "name": "newOwner",
          "type": "address"
        }
      ],
      "name": "transferOwnership",
      "outputs": [],
      "stateMutability": "nonpayable",
      "type": "function"
    },
    {
      "inputs": [],
      "name": "treasuryAddress",
      "outputs": [
        {
          "internalType": "address",
          "name": "",
          "type": "address"
        }
      ],
      "stateMutability": "view",
      "type": "function"
    },
    {
      "inputs": [],
      "name": "treasuryFunds",
      "outputs": [
        {
          "internalType": "uint256",
          "name": "",
          "type": "uint256"
        }
      ],
      "stateMutability": "view",
      "type": "function"
    },
    {
      "inputs": [],
      "name": "treasuryShare",
      "outputs": [
        {
          "internalType": "uint256",
          "name": "",
          "type": "uint256"
        }
      ],
      "stateMutability": "view",
      "type": "function"
    },
    {
      "inputs": [
        {
          "internalType": "address",
          "name": "_token",
          "type": "address"
        }
      ],
      "name": "treasuryWithdraw",
      "outputs": [],
      "stateMutability": "nonpayable",
      "type": "function"
    },
    {
      "inputs": [
        {
          "internalType": "uint256",
          "name": "_grantId",
          "type": "uint256"
        },
        {
          "internalType": "address",
          "name": "_token",
          "type": "address"
        }
      ],
      "name": "withdrawFunds",
      "outputs": [],
      "stateMutability": "nonpayable",
      "type": "function"
    }
  ],
  "bytecode": {
    "object": "0x6080604052600260075560036008553480156200001b57600080fd5b50604051620019c2380380620019c28339810160408190526200003e91620000f3565b620000493362000086565b600180546001600160a01b0319166001600160a01b0393841617815591166000908152600960205260409020805460ff191690911790556200012b565b600080546001600160a01b038381166001600160a01b0319831681178455604051919092169283917f8be0079c531659141344cd1fd0a4f28419497f9722a3daafe3b4186f6b6457e09190a35050565b80516001600160a01b0381168114620000ee57600080fd5b919050565b600080604083850312156200010757600080fd5b6200011283620000d6565b91506200012260208401620000d6565b90509250929050565b611887806200013b6000396000f3fe608060405234801561001057600080fd5b50600436106101585760003560e01c806389737a13116100c3578063b6ac0bcb1161007c578063b6ac0bcb146102b9578063c5f956af146102cc578063d4aa243f146102df578063e744092e146102f2578063f2fde38b14610325578063fe93659c1461033857600080fd5b806389737a13146102455780638da5cb5b1461024e5780638fe1d0fe1461025f5780639c01a40114610272578063b153ba7f1461027b578063b53472ef146102a657600080fd5b80636a1540fd116101155780636a1540fd146101f25780636b743d0f146101fb5780636d30a95d1461020e578063715018a614610221578063744bfe61146102295780637796ff371461023c57600080fd5b806302f563061461015d57806329570643146101725780634179edce1461018e5780634f24c938146101a15780636605bfda146101cc578063662d4105146101df575b600080fd5b61017061016b366004611372565b610358565b005b61017b60085481565b6040519081526020015b60405180910390f35b61017061019c366004611372565b610526565b6001546101b4906001600160a01b031681565b6040516001600160a01b039091168152602001610185565b6101706101da366004611372565b610550565b6003546101b4906001600160a01b031681565b61017b60045481565b610170610209366004611372565b61057a565b61017061021c366004611372565b6105a4565b610170610764565b610170610237366004611396565b610778565b61017b60075481565b61017b60065481565b6000546001600160a01b03166101b4565b61017061026d366004611412565b610bc5565b61017b60055481565b61017b61028936600461149e565b600b60209081526000928352604080842090915290825290205481565b6101706102b4366004611372565b611193565b6101706102c73660046114ca565b6111bf565b6002546101b4906001600160a01b031681565b6101706102ed3660046114ca565b611222565b610315610300366004611372565b60096020526000908152604090205460ff1681565b6040519015158152602001610185565b610170610333366004611372565b61123a565b61017b6103463660046114ca565b600a6020526000908152604090205481565b6003546001600160a01b03166103a75760405162461bcd60e51b815260206004820152600f60248201526e1059191c995cdcc81b9bdd081cd95d608a1b60448201526064015b60405180910390fd5b6006546000036103f15760405162461bcd60e51b81526020600482015260156024820152744e6f20616d6f756e7420746f20776974686472617760581b604482015260640161039e565b6001600160a01b03811660009081526009602052604090205460ff16151560011461042e5760405162461bcd60e51b815260040161039e906114e3565b6006805490819060006104418380611529565b909155505060035460405163a9059cbb60e01b81526001600160a01b0391821660048201526024810183905260009184169063a9059cbb906044016020604051808303816000875af115801561049b573d6000803e3d6000fd5b505050506040513d601f19601f820116820180604052508101906104bf9190611540565b9050806104de5760405162461bcd60e51b815260040161039e90611562565b6003546040518381526001600160a01b03909116907fa54ce7327877aa2bfe1c079e3bb0da2b7a774fe90a5af3afb74369f940e69c8a906020015b60405180910390a2505050565b61052e6112b3565b600180546001600160a01b0319166001600160a01b0392909216919091179055565b6105586112b3565b600280546001600160a01b0319166001600160a01b0392909216919091179055565b6105826112b3565b600380546001600160a01b0319166001600160a01b0392909216919091179055565b6002546001600160a01b03166105ee5760405162461bcd60e51b815260206004820152600f60248201526e1059191c995cdcc81b9bdd081cd95d608a1b604482015260640161039e565b6005546000036106385760405162461bcd60e51b81526020600482015260156024820152744e6f20616d6f756e7420746f20776974686472617760581b604482015260640161039e565b6001600160a01b03811660009081526009602052604090205460ff1615156001146106755760405162461bcd60e51b815260040161039e906114e3565b6005805490819060006106888380611529565b909155505060025460405163a9059cbb60e01b81526001600160a01b0391821660048201526024810183905260009184169063a9059cbb906044016020604051808303816000875af11580156106e2573d6000803e3d6000fd5b505050506040513d601f19601f820116820180604052508101906107069190611540565b9050806107255760405162461bcd60e51b815260040161039e90611562565b6002546040518381526001600160a01b03909116907fa54ce7327877aa2bfe1c079e3bb0da2b7a774fe90a5af3afb74369f940e69c8a90602001610519565b61076c6112b3565b610776600061130d565b565b600160009054906101000a90046001600160a01b03166001600160a01b031663e1c7901e6040518163ffffffff1660e01b8152600401602060405180830381865afa1580156107cb573d6000803e3d6000fd5b505050506040513d601f19601f820116820180604052508101906107ef9190611599565b821061080e57604051635a226c5560e01b815260040160405180910390fd5b60015460405163c6cb12c360e01b8152600481018490526001600160a01b039091169063c6cb12c390602401602060405180830381865afa158015610857573d6000803e3d6000fd5b505050506040513d601f19601f8201168201806040525081019061087b9190611540565b6108b95760405162461bcd60e51b815260206004820152600f60248201526e149bdd5b99081b9bdd08195b991959608a1b604482015260640161039e565b600154604051636c71bbd360e11b81526004810184905233916001600160a01b03169063d8e377a690602401602060405180830381865afa158015610902573d6000803e3d6000fd5b505050506040513d601f19601f8201168201806040525081019061092691906115b2565b6001600160a01b0316146109715760405162461bcd60e51b815260206004820152601260248201527121b0b63632b9103737ba1031b932b0ba37b960711b604482015260640161039e565b6001600160a01b03811660009081526009602052604090205460ff1615156001146109ae5760405162461bcd60e51b815260040161039e906114e3565b60006064806008546064600a6000888152602001908152602001600020546109d691906115cf565b6109e091906115cf565b6109ea91906115ee565b6109f491906115ee565b6007546000858152600a6020526040812054929350916064918291610a1a9083906115cf565b610a2491906115cf565b610a2e91906115ee565b610a3891906115ee565b90508160066000828254610a4c9190611610565b925050819055508060056000828254610a659190611610565b90915550506000848152600a60205260408120548290610a86908590611529565b610a909190611529565b60405163a9059cbb60e01b8152336004820152602481018290529091506000906001600160a01b0386169063a9059cbb906044016020604051808303816000875af1158015610ae3573d6000803e3d6000fd5b505050506040513d601f19601f82011682018060405250810190610b079190611540565b905080610b265760405162461bcd60e51b815260040161039e90611562565b60408051848152602081018690527f5142002880f7946bf7e8154b5f13199a523d03b341e310fde1d5ccb27078e633910160405180910390a1604051828152339087907f1a0f62646a75b889829738bb2e6e3e521779563be4cf34460155e443906e15699060200160405180910390a36000868152600a60205260408120546004805491929091610bb8908490611529565b9091555050505050505050565b848314610c145760405162461bcd60e51b815260206004820152601c60248201527f426f746820617272617973206c656e677468206e6f7420657175616c00000000604482015260640161039e565b6001600160a01b03811660009081526009602052604090205460ff161515600114610c815760405162461bcd60e51b815260206004820152601e60248201527f546f6b656e206973206e6f7420616c6c6f7765642f737570706f727465640000604482015260640161039e565b604051636eb1769f60e11b815233600482015230602482015282906001600160a01b0383169063dd62ed3e90604401602060405180830381865afa158015610ccd573d6000803e3d6000fd5b505050506040513d601f19601f82011682018060405250810190610cf19190611599565b1015610d4e5760405162461bcd60e51b815260206004820152602660248201527f4e6f7420617070726f76656420746f2073656e642062616c616e6365207265716044820152651d595cdd195960d21b606482015260840161039e565b6040516323b872dd60e01b8152336004820152306024820152604481018390526000906001600160a01b038316906323b872dd906064016020604051808303816000875af1158015610da4573d6000803e3d6000fd5b505050506040513d601f19601f82011682018060405250810190610dc89190611540565b905080610de75760405162461bcd60e51b815260040161039e90611562565b8260046000828254610df99190611610565b90915550600090508667ffffffffffffffff811115610e1a57610e1a611628565b604051908082528060200260200182016040528015610e43578160200160208202803683370190505b5090506000600160009054906101000a90046001600160a01b03166001600160a01b031663e1c7901e6040518163ffffffff1660e01b8152600401602060405180830381865afa158015610e9b573d6000803e3d6000fd5b505050506040513d601f19601f82011682018060405250810190610ebf9190611599565b90506000846001600160a01b031663313ce5676040518163ffffffff1660e01b8152600401602060405180830381865afa158015610f01573d6000803e3d6000fd5b505050506040513d601f19601f82011682018060405250810190610f25919061163e565b60ff1690506000805b8a8110156110aa57838c8c83818110610f4957610f49611661565b9050602002013510610f6e57604051635a226c5560e01b815260040160405180910390fd5b898982818110610f8057610f80611661565b90506020020135600a60008e8e85818110610f9d57610f9d611661565b9050602002013581526020019081526020016000206000828254610fc19190611610565b909155508a90508982818110610fd957610fd9611661565b336000908152600b60209081526040822092029390930135929091508e8e8581811061100757611007611661565b905060200201358152602001908152602001600020600082825461102b9190611610565b909155508a9050898281811061104357611043611661565b90506020020135826110559190611610565b915061106283600a61175d565b8a8a8381811061107457611074611661565b9050602002013561108591906115ee565b85828151811061109757611097611661565b6020908102919091010152600101610f2e565b508681146110d55760405163d020321b60e01b8152600481018290526024810188905260440161039e565b336001600160a01b03167f45e2f28bd4978481897202838c224423dc84365ba4ed0132db53fc731ce001b88c8c8c8c8c60405161111695949392919061179f565b60405180910390a2600154604051630fbfeffd60e11b81526001600160a01b0390911690631f7fdffa906111549033908f908f908a906004016117d9565b600060405180830381600087803b15801561116e57600080fd5b505af1158015611182573d6000803e3d6000fd5b505050505050505050505050505050565b61119b6112b3565b6001600160a01b03166000908152600960205260409020805460ff19166001179055565b6111c76112b3565b6065600854826111d79190611610565b1061121d5760405162461bcd60e51b8152602060048201526016602482015275556e617661696c61626c652070657263656e7461676560501b604482015260640161039e565b600855565b61122a6112b3565b6065600754826111d79190611610565b6112426112b3565b6001600160a01b0381166112a75760405162461bcd60e51b815260206004820152602660248201527f4f776e61626c653a206e6577206f776e657220697320746865207a65726f206160448201526564647265737360d01b606482015260840161039e565b6112b08161130d565b50565b6000546001600160a01b031633146107765760405162461bcd60e51b815260206004820181905260248201527f4f776e61626c653a2063616c6c6572206973206e6f7420746865206f776e6572604482015260640161039e565b600080546001600160a01b038381166001600160a01b0319831681178455604051919092169283917f8be0079c531659141344cd1fd0a4f28419497f9722a3daafe3b4186f6b6457e09190a35050565b6001600160a01b03811681146112b057600080fd5b60006020828403121561138457600080fd5b813561138f8161135d565b9392505050565b600080604083850312156113a957600080fd5b8235915060208301356113bb8161135d565b809150509250929050565b60008083601f8401126113d857600080fd5b50813567ffffffffffffffff8111156113f057600080fd5b6020830191508360208260051b850101111561140b57600080fd5b9250929050565b6000806000806000806080878903121561142b57600080fd5b863567ffffffffffffffff8082111561144357600080fd5b61144f8a838b016113c6565b9098509650602089013591508082111561146857600080fd5b5061147589828a016113c6565b9095509350506040870135915060608701356114908161135d565b809150509295509295509295565b600080604083850312156114b157600080fd5b82356114bc8161135d565b946020939093013593505050565b6000602082840312156114dc57600080fd5b5035919050565b602080825260169082015275151bdad95b881a5cc81b9bdd081cdd5c1c1bdc9d195960521b604082015260600190565b634e487b7160e01b600052601160045260246000fd5b60008282101561153b5761153b611513565b500390565b60006020828403121561155257600080fd5b8151801515811461138f57600080fd5b6020808252601e908201527f5472616e73616374696f6e20776173206e6f74207375636365737366756c0000604082015260600190565b6000602082840312156115ab57600080fd5b5051919050565b6000602082840312156115c457600080fd5b815161138f8161135d565b60008160001904831182151516156115e9576115e9611513565b500290565b60008261160b57634e487b7160e01b600052601260045260246000fd5b500490565b6000821982111561162357611623611513565b500190565b634e487b7160e01b600052604160045260246000fd5b60006020828403121561165057600080fd5b815160ff8116811461138f57600080fd5b634e487b7160e01b600052603260045260246000fd5b600181815b808511156116b257816000190482111561169857611698611513565b808516156116a557918102915b93841c939080029061167c565b509250929050565b6000826116c957506001611757565b816116d657506000611757565b81600181146116ec57600281146116f657611712565b6001915050611757565b60ff84111561170757611707611513565b50506001821b611757565b5060208310610133831016604e8410600b8410161715611735575081810a611757565b61173f8383611677565b806000190482111561175357611753611513565b0290505b92915050565b600061138f83836116ba565b81835260006001600160fb1b0383111561178257600080fd5b8260051b8083602087013760009401602001938452509192915050565b6060815260006117b3606083018789611769565b82810360208401526117c6818688611769565b9150508260408301529695505050505050565b6001600160a01b0385168152608060208083018290526000916117ff9084018688611769565b838103604085015284518082528286019183019060005b8181101561183257835183529284019291840191600101611816565b505084810360608601526000815282810193505050509594505050505056fea26469706673582212204783bd6b79853b136e35c0a50dd3a5261b6ba12f8cb7673cf91e75e73e92b09064736f6c634300080e0033",
    "linkReferences": {}
  },
  "methodIdentifiers": {
    "allowToken(address)": "b53472ef",
    "allowedTokens(address)": "e744092e",
    "depositFunds(uint256[],uint256[],uint256,address)": "8fe1d0fe",
    "donationPoolFunds()": "6a1540fd",
    "donationPoolFundsByGrantId(uint256)": "fe93659c",
    "fundsDepositedByAddress(address,uint256)": "b153ba7f",
    "hypercert()": "4f24c938",
    "owner()": "8da5cb5b",
    "qFAddress()": "662d4105",
    "qFWithdraw(address)": "02f56306",
    "quadraticFundingPoolFunds()": "89737a13",
    "quadraticFundingPoolShare()": "29570643",
    "renounceOwnership()": "715018a6",
    "setHypercertAddress(address)": "4179edce",
    "setQFAddress(address)": "6b743d0f",
    "setQFPoolShare(uint256)": "d4aa243f",
    "setTreasuryAddress(address)": "6605bfda",
    "setTreasuryPoolShare(uint256)": "b6ac0bcb",
    "transferOwnership(address)": "f2fde38b",
    "treasuryAddress()": "c5f956af",
    "treasuryFunds()": "9c01a401",
    "treasuryShare()": "7796ff37",
    "treasuryWithdraw(address)": "6d30a95d",
    "withdrawFunds(uint256,address)": "744bfe61"
  },
  "id": 36
}