{
  "abi": [
    {
      "inputs": [
        {
          "internalType": "string",
          "name": "uri_",
          "type": "string"
        }
      ],
      "stateMutability": "nonpayable",
      "type": "constructor"
    },
    {
      "anonymous": false,
      "inputs": [
        {
          "indexed": true,
          "internalType": "address",
          "name": "account",
          "type": "address"
        },
        {
          "indexed": true,
          "internalType": "address",
          "name": "operator",
          "type": "address"
        },
        {
          "indexed": false,
          "internalType": "bool",
          "name": "approved",
          "type": "bool"
        }
      ],
      "name": "ApprovalForAll",
      "type": "event"
    },
    {
      "anonymous": false,
      "inputs": [
        {
          "indexed": false,
          "internalType": "string",
          "name": "_grantName",
          "type": "string"
        },
        {
          "indexed": true,
          "internalType": "uint256",
          "name": "_grantId",
          "type": "uint256"
        },
        {
          "indexed": false,
          "internalType": "uint256",
          "name": "_grantEndTime",
          "type": "uint256"
        },
        {
          "indexed": true,
          "internalType": "address",
          "name": "_grantOwner",
          "type": "address"
        },
        {
          "indexed": false,
          "internalType": "uint256[]",
          "name": "_grantsByAddress",
          "type": "uint256[]"
        }
      ],
      "name": "GrantCreated",
      "type": "event"
    },
    {
      "anonymous": false,
      "inputs": [
        {
          "indexed": true,
          "internalType": "address",
          "name": "operator",
          "type": "address"
        },
        {
          "indexed": true,
          "internalType": "address",
          "name": "from",
          "type": "address"
        },
        {
          "indexed": true,
          "internalType": "address",
          "name": "to",
          "type": "address"
        },
        {
          "indexed": false,
          "internalType": "uint256[]",
          "name": "ids",
          "type": "uint256[]"
        },
        {
          "indexed": false,
          "internalType": "uint256[]",
          "name": "values",
          "type": "uint256[]"
        }
      ],
      "name": "TransferBatch",
      "type": "event"
    },
    {
      "anonymous": false,
      "inputs": [
        {
          "indexed": true,
          "internalType": "address",
          "name": "operator",
          "type": "address"
        },
        {
          "indexed": true,
          "internalType": "address",
          "name": "from",
          "type": "address"
        },
        {
          "indexed": true,
          "internalType": "address",
          "name": "to",
          "type": "address"
        },
        {
          "indexed": false,
          "internalType": "uint256",
          "name": "id",
          "type": "uint256"
        },
        {
          "indexed": false,
          "internalType": "uint256",
          "name": "value",
          "type": "uint256"
        }
      ],
      "name": "TransferSingle",
      "type": "event"
    },
    {
      "anonymous": false,
      "inputs": [
        {
          "indexed": false,
          "internalType": "string",
          "name": "value",
          "type": "string"
        },
        {
          "indexed": true,
          "internalType": "uint256",
          "name": "id",
          "type": "uint256"
        }
      ],
      "name": "URI",
      "type": "event"
    },
    {
      "inputs": [
        {
          "internalType": "address",
          "name": "_grantCreator",
          "type": "address"
        }
      ],
      "name": "_grantCreatorExists",
      "outputs": [
        {
          "internalType": "bool",
          "name": "",
          "type": "bool"
        }
      ],
      "stateMutability": "view",
      "type": "function"
    },
    {
      "inputs": [
        {
          "internalType": "uint256",
          "name": "_tokenID",
          "type": "uint256"
        }
      ],
      "name": "_grantPeriodHasEnded",
      "outputs": [
        {
          "internalType": "bool",
          "name": "",
          "type": "bool"
        }
      ],
      "stateMutability": "view",
      "type": "function"
    },
    {
      "inputs": [
        {
          "internalType": "address",
          "name": "to",
          "type": "address"
        },
        {
          "internalType": "uint256[]",
          "name": "ids",
          "type": "uint256[]"
        },
        {
          "internalType": "uint256[]",
          "name": "amounts",
          "type": "uint256[]"
        },
        {
          "internalType": "bytes",
          "name": "data",
          "type": "bytes"
        }
      ],
      "name": "_mintBatchExternal",
      "outputs": [],
      "stateMutability": "nonpayable",
      "type": "function"
    },
    {
      "inputs": [
        {
          "internalType": "address",
          "name": "account",
          "type": "address"
        },
        {
          "internalType": "uint256",
          "name": "id",
          "type": "uint256"
        }
      ],
      "name": "balanceOf",
      "outputs": [
        {
          "internalType": "uint256",
          "name": "",
          "type": "uint256"
        }
      ],
      "stateMutability": "view",
      "type": "function"
    },
    {
      "inputs": [
        {
          "internalType": "address[]",
          "name": "accounts",
          "type": "address[]"
        },
        {
          "internalType": "uint256[]",
          "name": "ids",
          "type": "uint256[]"
        }
      ],
      "name": "balanceOfBatch",
      "outputs": [
        {
          "internalType": "uint256[]",
          "name": "",
          "type": "uint256[]"
        }
      ],
      "stateMutability": "view",
      "type": "function"
    },
    {
      "inputs": [
        {
          "internalType": "string",
          "name": "_grantName",
          "type": "string"
        },
        {
          "internalType": "uint256",
          "name": "_grantEndTime",
          "type": "uint256"
        }
      ],
      "name": "createGrant",
      "outputs": [
        {
          "internalType": "uint256",
          "name": "_grantId",
          "type": "uint256"
        }
      ],
      "stateMutability": "nonpayable",
      "type": "function"
    },
    {
      "inputs": [
        {
          "internalType": "uint256",
          "name": "id",
          "type": "uint256"
        }
      ],
      "name": "exists",
      "outputs": [
        {
          "internalType": "bool",
          "name": "",
          "type": "bool"
        }
      ],
      "stateMutability": "view",
      "type": "function"
    },
    {
      "inputs": [
        {
          "internalType": "uint256",
          "name": "",
          "type": "uint256"
        }
      ],
      "name": "grantInfo",
      "outputs": [
        {
          "internalType": "string",
          "name": "grantName",
          "type": "string"
        },
        {
          "internalType": "uint256",
          "name": "grantEndTime",
          "type": "uint256"
        },
        {
          "internalType": "address",
          "name": "grantOwner",
          "type": "address"
        }
      ],
      "stateMutability": "view",
      "type": "function"
    },
    {
      "inputs": [
        {
          "internalType": "address",
          "name": "",
          "type": "address"
        },
        {
          "internalType": "uint256",
          "name": "",
          "type": "uint256"
        }
      ],
      "name": "grantsByAddress",
      "outputs": [
        {
          "internalType": "uint256",
          "name": "",
          "type": "uint256"
        }
      ],
      "stateMutability": "view",
      "type": "function"
    },
    {
      "inputs": [
        {
          "internalType": "address",
          "name": "account",
          "type": "address"
        },
        {
          "internalType": "address",
          "name": "operator",
          "type": "address"
        }
      ],
      "name": "isApprovedForAll",
      "outputs": [
        {
          "internalType": "bool",
          "name": "",
          "type": "bool"
        }
      ],
      "stateMutability": "view",
      "type": "function"
    },
    {
      "inputs": [],
      "name": "latestUnusedId",
      "outputs": [
        {
          "internalType": "uint256",
          "name": "",
          "type": "uint256"
        }
      ],
      "stateMutability": "view",
      "type": "function"
    },
    {
      "inputs": [],
      "name": "owner",
      "outputs": [
        {
          "internalType": "address",
          "name": "",
          "type": "address"
        }
      ],
      "stateMutability": "view",
      "type": "function"
    },
    {
      "inputs": [],
      "name": "poolAddress",
      "outputs": [
        {
          "internalType": "address",
          "name": "",
          "type": "address"
        }
      ],
      "stateMutability": "view",
      "type": "function"
    },
    {
      "inputs": [
        {
          "internalType": "address",
          "name": "from",
          "type": "address"
        },
        {
          "internalType": "address",
          "name": "to",
          "type": "address"
        },
        {
          "internalType": "uint256[]",
          "name": "ids",
          "type": "uint256[]"
        },
        {
          "internalType": "uint256[]",
          "name": "amounts",
          "type": "uint256[]"
        },
        {
          "internalType": "bytes",
          "name": "data",
          "type": "bytes"
        }
      ],
      "name": "safeBatchTransferFrom",
      "outputs": [],
      "stateMutability": "nonpayable",
      "type": "function"
    },
    {
      "inputs": [
        {
          "internalType": "address",
          "name": "from",
          "type": "address"
        },
        {
          "internalType": "address",
          "name": "to",
          "type": "address"
        },
        {
          "internalType": "uint256",
          "name": "id",
          "type": "uint256"
        },
        {
          "internalType": "uint256",
          "name": "amount",
          "type": "uint256"
        },
        {
          "internalType": "bytes",
          "name": "data",
          "type": "bytes"
        }
      ],
      "name": "safeTransferFrom",
      "outputs": [],
      "stateMutability": "nonpayable",
      "type": "function"
    },
    {
      "inputs": [
        {
          "internalType": "address",
          "name": "operator",
          "type": "address"
        },
        {
          "internalType": "bool",
          "name": "approved",
          "type": "bool"
        }
      ],
      "name": "setApprovalForAll",
      "outputs": [],
      "stateMutability": "nonpayable",
      "type": "function"
    },
    {
      "inputs": [
        {
          "internalType": "address",
          "name": "_poolAddress",
          "type": "address"
        }
      ],
      "name": "setPool",
      "outputs": [],
      "stateMutability": "nonpayable",
      "type": "function"
    },
    {
      "inputs": [
        {
          "internalType": "string",
          "name": "_newuri",
          "type": "string"
        }
      ],
      "name": "setURI",
      "outputs": [],
      "stateMutability": "nonpayable",
      "type": "function"
    },
    {
      "inputs": [
        {
          "internalType": "bytes4",
          "name": "interfaceId",
          "type": "bytes4"
        }
      ],
      "name": "supportsInterface",
      "outputs": [
        {
          "internalType": "bool",
          "name": "",
          "type": "bool"
        }
      ],
      "stateMutability": "view",
      "type": "function"
    },
    {
      "inputs": [
        {
          "internalType": "uint256",
          "name": "id",
          "type": "uint256"
        }
      ],
      "name": "totalSupply",
      "outputs": [
        {
          "internalType": "uint256",
          "name": "",
          "type": "uint256"
        }
      ],
      "stateMutability": "view",
      "type": "function"
    },
    {
      "inputs": [
        {
          "internalType": "uint256",
          "name": "",
          "type": "uint256"
        }
      ],
      "name": "uri",
      "outputs": [
        {
          "internalType": "string",
          "name": "",
          "type": "string"
        }
      ],
      "stateMutability": "view",
      "type": "function"
    }
  ],
  "bytecode": {
    "object": "0x60806040523480156200001157600080fd5b506040516200223a3803806200223a83398101604081905262000034916200012f565b8062000040816200005a565b5050600580546001600160a01b0319163317905562000247565b80516200006f90600290602084019062000073565b5050565b82805462000081906200020b565b90600052602060002090601f016020900481019282620000a55760008555620000f0565b82601f10620000c057805160ff1916838001178555620000f0565b82800160010185558215620000f0579182015b82811115620000f0578251825591602001919060010190620000d3565b50620000fe92915062000102565b5090565b5b80821115620000fe576000815560010162000103565b634e487b7160e01b600052604160045260246000fd5b600060208083850312156200014357600080fd5b82516001600160401b03808211156200015b57600080fd5b818501915085601f8301126200017057600080fd5b81518181111562000185576200018562000119565b604051601f8201601f19908116603f01168101908382118183101715620001b057620001b062000119565b816040528281528886848701011115620001c957600080fd5b600093505b82841015620001ed5784840186015181850187015292850192620001ce565b82841115620001ff5760008684830101525b98975050505050505050565b600181811c908216806200022057607f821691505b6020821081036200024157634e487b7160e01b600052602260045260246000fd5b50919050565b611fe380620002576000396000f3fe608060405234801561001057600080fd5b50600436106101365760003560e01c80634e1273f4116100b8578063a1cd6df61161007c578063a1cd6df6146102cd578063a22cb465146102e0578063bd85b039146102f3578063e1c7901e14610313578063e985e9c51461031c578063f242432a1461035857600080fd5b80634e1273f4146102435780634f558e7914610263578063841f15671461028557806385ac3709146102985780638da5cb5b146102ba57600080fd5b80631ce3ea52116100ff5780631ce3ea52146101e45780632eb2c2d6146101f7578063437d80751461020a5780634437152a1461021d5780634d46626d1461023057600080fd5b8062fdd58e1461013b57806301ffc9a71461016157806302fe5305146101845780630e89341c146101995780631755ff21146101b9575b600080fd5b61014e610149366004611516565b61036b565b6040519081526020015b60405180910390f35b61017461016f366004611559565b610401565b6040519015158152602001610158565b6101976101923660046115c6565b610453565b005b6101ac6101a7366004611608565b6104e6565b604051610158919061166e565b6006546101cc906001600160a01b031681565b6040516001600160a01b039091168152602001610158565b6101746101f2366004611681565b61057a565b6101976102053660046117e8565b6105ad565b61014e610218366004611516565b6105f9565b61019761022b366004611681565b61062a565b61019761023e366004611892565b61069c565b61025661025136600461192b565b610782565b6040516101589190611a31565b610174610271366004611608565b600090815260036020526040902054151590565b610174610293366004611608565b6108ac565b6102ab6102a6366004611608565b6108cd565b60405161015893929190611a44565b6005546101cc906001600160a01b031681565b61014e6102db366004611a77565b610981565b6101976102ee366004611ac3565b610a56565b61014e610301366004611608565b60009081526003602052604090205490565b61014e60045481565b61017461032a366004611aff565b6001600160a01b03918216600090815260016020908152604080832093909416825291909152205460ff1690565b610197610366366004611b32565b610a61565b60006001600160a01b0383166103db5760405162461bcd60e51b815260206004820152602a60248201527f455243313135353a2061646472657373207a65726f206973206e6f742061207660448201526930b634b21037bbb732b960b11b60648201526084015b60405180910390fd5b506000908152602081815260408083206001600160a01b03949094168352929052205490565b60006001600160e01b03198216636cdb3d1360e11b148061043257506001600160e01b031982166303a24d0760e21b145b8061044d57506301ffc9a760e01b6001600160e01b03198316145b92915050565b6005546001600160a01b031633146104a35760405162461bcd60e51b815260206004820152601360248201527227bbb732b91037b7363c90333ab731ba34b7b760691b60448201526064016103d2565b6104e282828080601f016020809104026020016040519081016040528093929190818152602001838380828437600092019190915250610aa692505050565b5050565b6060600280546104f590611b97565b80601f016020809104026020016040519081016040528092919081815260200182805461052190611b97565b801561056e5780601f106105435761010080835404028352916020019161056e565b820191906000526020600020905b81548152906001019060200180831161055157829003601f168201915b50505050509050919050565b6001600160a01b038116600090815260086020526040812054156105a057506001919050565b506000919050565b919050565b6001600160a01b0385163314806105c957506105c9853361032a565b6105e55760405162461bcd60e51b81526004016103d290611bd1565b6105f28585858585610ab9565b5050505050565b6008602052816000526040600020818154811061061557600080fd5b90600052602060002001600091509150505481565b6005546001600160a01b0316331461067a5760405162461bcd60e51b815260206004820152601360248201527227bbb732b91037b7363c90333ab731ba34b7b760691b60448201526064016103d2565b600680546001600160a01b0319166001600160a01b0392909216919091179055565b6006546001600160a01b031633146106f65760405162461bcd60e51b815260206004820152601a60248201527f46756e64696e6720506f6f6c206f6e6c792066756e6374696f6e00000000000060448201526064016103d2565b60005b83518110156105f2576007600085838151811061071857610718611c1f565b6020026020010151815260200190815260200160002060010154421061076e5760405162461bcd60e51b815260206004820152600b60248201526a149bdd5b9908195b99195960aa1b60448201526064016103d2565b61077a85858585610c63565b6001016106f9565b606081518351146107e75760405162461bcd60e51b815260206004820152602960248201527f455243313135353a206163636f756e747320616e6420696473206c656e677468604482015268040dad2e6dac2e8c6d60bb1b60648201526084016103d2565b6000835167ffffffffffffffff8111156108035761080361169c565b60405190808252806020026020018201604052801561082c578160200160208202803683370190505b50905060005b84518110156108a45761087785828151811061085057610850611c1f565b602002602001015185838151811061086a5761086a611c1f565b602002602001015161036b565b82828151811061088957610889611c1f565b602090810291909101015261089d81611c4b565b9050610832565b509392505050565b6000818152600760205260408120600101544211156105a057506001919050565b6007602052600090815260409020805481906108e890611b97565b80601f016020809104026020016040519081016040528092919081815260200182805461091490611b97565b80156109615780601f1061093657610100808354040283529160200191610961565b820191906000526020600020905b81548152906001019060200180831161094457829003601f168201915b5050505060018301546002909301549192916001600160a01b0316905083565b600454600090815260076020526040812061099d9085856113f2565b5060048054600090815260076020908152604080832060019081018790558454845281842060020180546001600160a01b0319163390811790915580855260088452828520865481549384018255818752948620909201939093559354928290525190927fce6cc94d2969422afc07f31077683318b763b770c558fe069fde82951646479a91610a3291899189918991611c64565b60405180910390a360048054906000610a4a83611c4b565b90915550949350505050565b6104e2338383610df7565b6001600160a01b038516331480610a7d5750610a7d853361032a565b610a995760405162461bcd60e51b81526004016103d290611bd1565b6105f28585858585610ed7565b80516104e2906002906020840190611476565b8151835114610ada5760405162461bcd60e51b81526004016103d290611ce2565b6001600160a01b038416610b005760405162461bcd60e51b81526004016103d290611d2a565b33610b0f81878787878761100f565b60005b8451811015610bf5576000858281518110610b2f57610b2f611c1f565b602002602001015190506000858381518110610b4d57610b4d611c1f565b602090810291909101810151600084815280835260408082206001600160a01b038e168352909352919091205490915081811015610b9d5760405162461bcd60e51b81526004016103d290611d6f565b6000838152602081815260408083206001600160a01b038e8116855292528083208585039055908b16825281208054849290610bda908490611db9565b9250508190555050505080610bee90611c4b565b9050610b12565b50846001600160a01b0316866001600160a01b0316826001600160a01b03167f4a39dc06d4c0dbc64b70af90fd698a233a518aa5d07e595d983b8c0526c8f7fb8787604051610c45929190611dd1565b60405180910390a4610c5b818787878787611191565b505050505050565b6001600160a01b038416610cc35760405162461bcd60e51b815260206004820152602160248201527f455243313135353a206d696e7420746f20746865207a65726f206164647265736044820152607360f81b60648201526084016103d2565b8151835114610ce45760405162461bcd60e51b81526004016103d290611ce2565b33610cf48160008787878761100f565b60005b8451811015610d8f57838181518110610d1257610d12611c1f565b6020026020010151600080878481518110610d2f57610d2f611c1f565b602002602001015181526020019081526020016000206000886001600160a01b03166001600160a01b031681526020019081526020016000206000828254610d779190611db9565b90915550819050610d8781611c4b565b915050610cf7565b50846001600160a01b031660006001600160a01b0316826001600160a01b03167f4a39dc06d4c0dbc64b70af90fd698a233a518aa5d07e595d983b8c0526c8f7fb8787604051610de0929190611dd1565b60405180910390a46105f281600087878787611191565b816001600160a01b0316836001600160a01b031603610e6a5760405162461bcd60e51b815260206004820152602960248201527f455243313135353a2073657474696e6720617070726f76616c20737461747573604482015268103337b91039b2b63360b91b60648201526084016103d2565b6001600160a01b03838116600081815260016020908152604080832094871680845294825291829020805460ff191686151590811790915591519182527f17307eab39ab6107e8899845ad3d59bd9653f200f220920489ca2b5937696c31910160405180910390a3505050565b6001600160a01b038416610efd5760405162461bcd60e51b81526004016103d290611d2a565b336000610f09856112ec565b90506000610f16856112ec565b9050610f2683898985858961100f565b6000868152602081815260408083206001600160a01b038c16845290915290205485811015610f675760405162461bcd60e51b81526004016103d290611d6f565b6000878152602081815260408083206001600160a01b038d8116855292528083208985039055908a16825281208054889290610fa4908490611db9565b909155505060408051888152602081018890526001600160a01b03808b16928c821692918816917fc3d58168c5ae7397731d063d5bbf3d657854427343f4c083240f7aacaa2d0f62910160405180910390a4611004848a8a8a8a8a611337565b505050505050505050565b6001600160a01b0385166110965760005b83518110156110945782818151811061103b5761103b611c1f565b60200260200101516003600086848151811061105957611059611c1f565b60200260200101518152602001908152602001600020600082825461107e9190611db9565b9091555061108d905081611c4b565b9050611020565b505b6001600160a01b038416610c5b5760005b83518110156111885760008482815181106110c4576110c4611c1f565b6020026020010151905060008483815181106110e2576110e2611c1f565b60200260200101519050600060036000848152602001908152602001600020549050818110156111655760405162461bcd60e51b815260206004820152602860248201527f455243313135353a206275726e20616d6f756e74206578636565647320746f74604482015267616c537570706c7960c01b60648201526084016103d2565b6000928352600360205260409092209103905561118181611c4b565b90506110a7565b50505050505050565b6001600160a01b0384163b15610c5b5760405163bc197c8160e01b81526001600160a01b0385169063bc197c81906111d59089908990889088908890600401611dff565b6020604051808303816000875af1925050508015611210575060408051601f3d908101601f1916820190925261120d91810190611e5d565b60015b6112bc5761121c611e7a565b806308c379a0036112555750611230611e96565b8061123b5750611257565b8060405162461bcd60e51b81526004016103d2919061166e565b505b60405162461bcd60e51b815260206004820152603460248201527f455243313135353a207472616e7366657220746f206e6f6e2d455243313135356044820152732932b1b2b4bb32b91034b6b83632b6b2b73a32b960611b60648201526084016103d2565b6001600160e01b0319811663bc197c8160e01b146111885760405162461bcd60e51b81526004016103d290611f20565b6040805160018082528183019092526060916000919060208083019080368337019050509050828160008151811061132657611326611c1f565b602090810291909101015292915050565b6001600160a01b0384163b15610c5b5760405163f23a6e6160e01b81526001600160a01b0385169063f23a6e619061137b9089908990889088908890600401611f68565b6020604051808303816000875af19250505080156113b6575060408051601f3d908101601f191682019092526113b391810190611e5d565b60015b6113c25761121c611e7a565b6001600160e01b0319811663f23a6e6160e01b146111885760405162461bcd60e51b81526004016103d290611f20565b8280546113fe90611b97565b90600052602060002090601f0160209004810192826114205760008555611466565b82601f106114395782800160ff19823516178555611466565b82800160010185558215611466579182015b8281111561146657823582559160200191906001019061144b565b506114729291506114ea565b5090565b82805461148290611b97565b90600052602060002090601f0160209004810192826114a45760008555611466565b82601f106114bd57805160ff1916838001178555611466565b82800160010185558215611466579182015b828111156114665782518255916020019190600101906114cf565b5b8082111561147257600081556001016114eb565b80356001600160a01b03811681146105a857600080fd5b6000806040838503121561152957600080fd5b611532836114ff565b946020939093013593505050565b6001600160e01b03198116811461155657600080fd5b50565b60006020828403121561156b57600080fd5b813561157681611540565b9392505050565b60008083601f84011261158f57600080fd5b50813567ffffffffffffffff8111156115a757600080fd5b6020830191508360208285010111156115bf57600080fd5b9250929050565b600080602083850312156115d957600080fd5b823567ffffffffffffffff8111156115f057600080fd5b6115fc8582860161157d565b90969095509350505050565b60006020828403121561161a57600080fd5b5035919050565b6000815180845260005b818110156116475760208185018101518683018201520161162b565b81811115611659576000602083870101525b50601f01601f19169290920160200192915050565b6020815260006115766020830184611621565b60006020828403121561169357600080fd5b611576826114ff565b634e487b7160e01b600052604160045260246000fd5b601f8201601f1916810167ffffffffffffffff811182821017156116d8576116d861169c565b6040525050565b600067ffffffffffffffff8211156116f9576116f961169c565b5060051b60200190565b600082601f83011261171457600080fd5b81356020611721826116df565b60405161172e82826116b2565b83815260059390931b850182019282810191508684111561174e57600080fd5b8286015b848110156117695780358352918301918301611752565b509695505050505050565b600082601f83011261178557600080fd5b813567ffffffffffffffff81111561179f5761179f61169c565b6040516117b6601f8301601f1916602001826116b2565b8181528460208386010111156117cb57600080fd5b816020850160208301376000918101602001919091529392505050565b600080600080600060a0868803121561180057600080fd5b611809866114ff565b9450611817602087016114ff565b9350604086013567ffffffffffffffff8082111561183457600080fd5b61184089838a01611703565b9450606088013591508082111561185657600080fd5b61186289838a01611703565b9350608088013591508082111561187857600080fd5b5061188588828901611774565b9150509295509295909350565b600080600080608085870312156118a857600080fd5b6118b1856114ff565b9350602085013567ffffffffffffffff808211156118ce57600080fd5b6118da88838901611703565b945060408701359150808211156118f057600080fd5b6118fc88838901611703565b9350606087013591508082111561191257600080fd5b5061191f87828801611774565b91505092959194509250565b6000806040838503121561193e57600080fd5b823567ffffffffffffffff8082111561195657600080fd5b818501915085601f83011261196a57600080fd5b81356020611977826116df565b60405161198482826116b2565b83815260059390931b85018201928281019150898411156119a457600080fd5b948201945b838610156119c9576119ba866114ff565b825294820194908201906119a9565b965050860135925050808211156119df57600080fd5b506119ec85828601611703565b9150509250929050565b600081518084526020808501945080840160005b83811015611a2657815187529582019590820190600101611a0a565b509495945050505050565b60208152600061157660208301846119f6565b606081526000611a576060830186611621565b6020830194909452506001600160a01b0391909116604090910152919050565b600080600060408486031215611a8c57600080fd5b833567ffffffffffffffff811115611aa357600080fd5b611aaf8682870161157d565b909790965060209590950135949350505050565b60008060408385031215611ad657600080fd5b611adf836114ff565b915060208301358015158114611af457600080fd5b809150509250929050565b60008060408385031215611b1257600080fd5b611b1b836114ff565b9150611b29602084016114ff565b90509250929050565b600080600080600060a08688031215611b4a57600080fd5b611b53866114ff565b9450611b61602087016114ff565b93506040860135925060608601359150608086013567ffffffffffffffff811115611b8b57600080fd5b61188588828901611774565b600181811c90821680611bab57607f821691505b602082108103611bcb57634e487b7160e01b600052602260045260246000fd5b50919050565b6020808252602e908201527f455243313135353a2063616c6c6572206973206e6f7420746f6b656e206f776e60408201526d195c881bdc88185c1c1c9bdd995960921b606082015260800190565b634e487b7160e01b600052603260045260246000fd5b634e487b7160e01b600052601160045260246000fd5b600060018201611c5d57611c5d611c35565b5060010190565b60608152836060820152838560808301376000608085830181018290526020808401869052601f8701601f191684018481038301604086015285549281018390528584528184209284929160a001905b80841015611cd45784548252600194850194939093019290820190611cb4565b509998505050505050505050565b60208082526028908201527f455243313135353a2069647320616e6420616d6f756e7473206c656e677468206040820152670dad2e6dac2e8c6d60c31b606082015260800190565b60208082526025908201527f455243313135353a207472616e7366657220746f20746865207a65726f206164604082015264647265737360d81b606082015260800190565b6020808252602a908201527f455243313135353a20696e73756666696369656e742062616c616e636520666f60408201526939103a3930b739b332b960b11b606082015260800190565b60008219821115611dcc57611dcc611c35565b500190565b604081526000611de460408301856119f6565b8281036020840152611df681856119f6565b95945050505050565b6001600160a01b0386811682528516602082015260a060408201819052600090611e2b908301866119f6565b8281036060840152611e3d81866119f6565b90508281036080840152611e518185611621565b98975050505050505050565b600060208284031215611e6f57600080fd5b815161157681611540565b600060033d1115611e935760046000803e5060005160e01c5b90565b600060443d1015611ea45790565b6040516003193d81016004833e81513d67ffffffffffffffff8160248401118184111715611ed457505050505090565b8285019150815181811115611eec5750505050505090565b843d8701016020828501011115611f065750505050505090565b611f15602082860101876116b2565b509095945050505050565b60208082526028908201527f455243313135353a204552433131353552656365697665722072656a656374656040820152676420746f6b656e7360c01b606082015260800190565b6001600160a01b03868116825285166020820152604081018490526060810183905260a060808201819052600090611fa290830184611621565b97965050505050505056fea2646970667358221220d3a3645c2e41a8db2eadad4dafc5920170fcd7af6dbf3f2d54153fe3687bb6e064736f6c634300080e0033",
    "linkReferences": {}
  },
  "methodIdentifiers": {
    "_grantCreatorExists(address)": "1ce3ea52",
    "_grantPeriodHasEnded(uint256)": "841f1567",
    "_mintBatchExternal(address,uint256[],uint256[],bytes)": "4d46626d",
    "balanceOf(address,uint256)": "00fdd58e",
    "balanceOfBatch(address[],uint256[])": "4e1273f4",
    "createGrant(string,uint256)": "a1cd6df6",
    "exists(uint256)": "4f558e79",
    "grantInfo(uint256)": "85ac3709",
    "grantsByAddress(address,uint256)": "437d8075",
    "isApprovedForAll(address,address)": "e985e9c5",
    "latestUnusedId()": "e1c7901e",
    "owner()": "8da5cb5b",
    "poolAddress()": "1755ff21",
    "safeBatchTransferFrom(address,address,uint256[],uint256[],bytes)": "2eb2c2d6",
    "safeTransferFrom(address,address,uint256,uint256,bytes)": "f242432a",
    "setApprovalForAll(address,bool)": "a22cb465",
    "setPool(address)": "4437152a",
    "setURI(string)": "02fe5305",
    "supportsInterface(bytes4)": "01ffc9a7",
    "totalSupply(uint256)": "bd85b039",
    "uri(uint256)": "0e89341c"
  },
  "id": 31
}