{
  "abi": [
    {
      "inputs": [],
      "stateMutability": "nonpayable",
      "type": "constructor"
    },
    {
      "inputs": [
        {
          "internalType": "uint256",
          "name": "_grantId",
          "type": "uint256"
        }
      ],
      "name": "RoundEnded",
      "type": "error"
    },
    {
      "anonymous": false,
      "inputs": [
        {
          "indexed": true,
          "internalType": "address",
          "name": "account",
          "type": "address"
        },
        {
          "indexed": true,
          "internalType": "address",
          "name": "operator",
          "type": "address"
        },
        {
          "indexed": false,
          "internalType": "bool",
          "name": "approved",
          "type": "bool"
        }
      ],
      "name": "ApprovalForAll",
      "type": "event"
    },
    {
      "anonymous": false,
      "inputs": [
        {
          "indexed": false,
          "internalType": "string",
          "name": "_grantName",
          "type": "string"
        },
        {
          "indexed": true,
          "internalType": "uint256",
          "name": "_grantId",
          "type": "uint256"
        },
        {
          "indexed": false,
          "internalType": "uint256",
          "name": "_grantEndTime",
          "type": "uint256"
        },
        {
          "indexed": true,
          "internalType": "address",
          "name": "_grantOwner",
          "type": "address"
        },
        {
          "indexed": false,
          "internalType": "uint256[]",
          "name": "_grantsByAddress",
          "type": "uint256[]"
        }
      ],
      "name": "GrantCreated",
      "type": "event"
    },
    {
      "anonymous": false,
      "inputs": [
        {
          "indexed": true,
          "internalType": "address",
          "name": "previousOwner",
          "type": "address"
        },
        {
          "indexed": true,
          "internalType": "address",
          "name": "newOwner",
          "type": "address"
        }
      ],
      "name": "OwnershipTransferred",
      "type": "event"
    },
    {
      "anonymous": false,
      "inputs": [
        {
          "indexed": true,
          "internalType": "address",
          "name": "operator",
          "type": "address"
        },
        {
          "indexed": true,
          "internalType": "address",
          "name": "from",
          "type": "address"
        },
        {
          "indexed": true,
          "internalType": "address",
          "name": "to",
          "type": "address"
        },
        {
          "indexed": false,
          "internalType": "uint256[]",
          "name": "ids",
          "type": "uint256[]"
        },
        {
          "indexed": false,
          "internalType": "uint256[]",
          "name": "values",
          "type": "uint256[]"
        }
      ],
      "name": "TransferBatch",
      "type": "event"
    },
    {
      "anonymous": false,
      "inputs": [
        {
          "indexed": true,
          "internalType": "address",
          "name": "operator",
          "type": "address"
        },
        {
          "indexed": true,
          "internalType": "address",
          "name": "from",
          "type": "address"
        },
        {
          "indexed": true,
          "internalType": "address",
          "name": "to",
          "type": "address"
        },
        {
          "indexed": false,
          "internalType": "uint256",
          "name": "id",
          "type": "uint256"
        },
        {
          "indexed": false,
          "internalType": "uint256",
          "name": "value",
          "type": "uint256"
        }
      ],
      "name": "TransferSingle",
      "type": "event"
    },
    {
      "anonymous": false,
      "inputs": [
        {
          "indexed": false,
          "internalType": "string",
          "name": "value",
          "type": "string"
        },
        {
          "indexed": true,
          "internalType": "uint256",
          "name": "id",
          "type": "uint256"
        }
      ],
      "name": "URI",
      "type": "event"
    },
    {
      "inputs": [
        {
          "internalType": "address",
          "name": "account",
          "type": "address"
        },
        {
          "internalType": "uint256",
          "name": "id",
          "type": "uint256"
        }
      ],
      "name": "balanceOf",
      "outputs": [
        {
          "internalType": "uint256",
          "name": "",
          "type": "uint256"
        }
      ],
      "stateMutability": "view",
      "type": "function"
    },
    {
      "inputs": [
        {
          "internalType": "address[]",
          "name": "accounts",
          "type": "address[]"
        },
        {
          "internalType": "uint256[]",
          "name": "ids",
          "type": "uint256[]"
        }
      ],
      "name": "balanceOfBatch",
      "outputs": [
        {
          "internalType": "uint256[]",
          "name": "",
          "type": "uint256[]"
        }
      ],
      "stateMutability": "view",
      "type": "function"
    },
    {
      "inputs": [
        {
          "internalType": "string",
          "name": "_grantName",
          "type": "string"
        },
        {
          "internalType": "uint256",
          "name": "_grantEndTime",
          "type": "uint256"
        },
        {
          "internalType": "string",
          "name": "_tokenURI",
          "type": "string"
        }
      ],
      "name": "createGrant",
      "outputs": [
        {
          "internalType": "uint256",
          "name": "_grantId",
          "type": "uint256"
        }
      ],
      "stateMutability": "nonpayable",
      "type": "function"
    },
    {
      "inputs": [
        {
          "internalType": "uint256",
          "name": "id",
          "type": "uint256"
        }
      ],
      "name": "exists",
      "outputs": [
        {
          "internalType": "bool",
          "name": "",
          "type": "bool"
        }
      ],
      "stateMutability": "view",
      "type": "function"
    },
    {
      "inputs": [
        {
          "internalType": "uint256",
          "name": "_grandId",
          "type": "uint256"
        }
      ],
      "name": "grantEnded",
      "outputs": [
        {
          "internalType": "bool",
          "name": "_ended",
          "type": "bool"
        }
      ],
      "stateMutability": "view",
      "type": "function"
    },
    {
      "inputs": [
        {
          "internalType": "uint256",
          "name": "",
          "type": "uint256"
        }
      ],
      "name": "grantInfo",
      "outputs": [
        {
          "internalType": "string",
          "name": "grantName",
          "type": "string"
        },
        {
          "internalType": "uint256",
          "name": "grantEndTime",
          "type": "uint256"
        },
        {
          "internalType": "address",
          "name": "grantOwner",
          "type": "address"
        },
        {
          "internalType": "string",
          "name": "grantURI",
          "type": "string"
        }
      ],
      "stateMutability": "view",
      "type": "function"
    },
    {
      "inputs": [
        {
          "internalType": "uint256",
          "name": "_grandId",
          "type": "uint256"
        }
      ],
      "name": "grantOwner",
      "outputs": [
        {
          "internalType": "address",
          "name": "_creator",
          "type": "address"
        }
      ],
      "stateMutability": "view",
      "type": "function"
    },
    {
      "inputs": [
        {
          "internalType": "address",
          "name": "",
          "type": "address"
        },
        {
          "internalType": "uint256",
          "name": "",
          "type": "uint256"
        }
      ],
      "name": "grantsByAddress",
      "outputs": [
        {
          "internalType": "uint256",
          "name": "",
          "type": "uint256"
        }
      ],
      "stateMutability": "view",
      "type": "function"
    },
    {
      "inputs": [
        {
          "internalType": "address",
          "name": "_addr",
          "type": "address"
        }
      ],
      "name": "grantsCreatedByAddress",
      "outputs": [
        {
          "internalType": "uint256[]",
          "name": "_grants",
          "type": "uint256[]"
        }
      ],
      "stateMutability": "view",
      "type": "function"
    },
    {
      "inputs": [
        {
          "internalType": "address",
          "name": "account",
          "type": "address"
        },
        {
          "internalType": "address",
          "name": "operator",
          "type": "address"
        }
      ],
      "name": "isApprovedForAll",
      "outputs": [
        {
          "internalType": "bool",
          "name": "",
          "type": "bool"
        }
      ],
      "stateMutability": "view",
      "type": "function"
    },
    {
      "inputs": [],
      "name": "latestUnusedId",
      "outputs": [
        {
          "internalType": "uint256",
          "name": "",
          "type": "uint256"
        }
      ],
      "stateMutability": "view",
      "type": "function"
    },
    {
      "inputs": [
        {
          "internalType": "address",
          "name": "to",
          "type": "address"
        },
        {
          "internalType": "uint256[]",
          "name": "ids",
          "type": "uint256[]"
        },
        {
          "internalType": "uint256[]",
          "name": "amounts",
          "type": "uint256[]"
        },
        {
          "internalType": "bytes",
          "name": "data",
          "type": "bytes"
        }
      ],
      "name": "mintBatch",
      "outputs": [],
      "stateMutability": "nonpayable",
      "type": "function"
    },
    {
      "inputs": [],
      "name": "owner",
      "outputs": [
        {
          "internalType": "address",
          "name": "",
          "type": "address"
        }
      ],
      "stateMutability": "view",
      "type": "function"
    },
    {
      "inputs": [],
      "name": "poolAddress",
      "outputs": [
        {
          "internalType": "address",
          "name": "",
          "type": "address"
        }
      ],
      "stateMutability": "view",
      "type": "function"
    },
    {
      "inputs": [],
      "name": "renounceOwnership",
      "outputs": [],
      "stateMutability": "nonpayable",
      "type": "function"
    },
    {
      "inputs": [
        {
          "internalType": "address",
          "name": "from",
          "type": "address"
        },
        {
          "internalType": "address",
          "name": "to",
          "type": "address"
        },
        {
          "internalType": "uint256[]",
          "name": "ids",
          "type": "uint256[]"
        },
        {
          "internalType": "uint256[]",
          "name": "amounts",
          "type": "uint256[]"
        },
        {
          "internalType": "bytes",
          "name": "data",
          "type": "bytes"
        }
      ],
      "name": "safeBatchTransferFrom",
      "outputs": [],
      "stateMutability": "nonpayable",
      "type": "function"
    },
    {
      "inputs": [
        {
          "internalType": "address",
          "name": "from",
          "type": "address"
        },
        {
          "internalType": "address",
          "name": "to",
          "type": "address"
        },
        {
          "internalType": "uint256",
          "name": "id",
          "type": "uint256"
        },
        {
          "internalType": "uint256",
          "name": "amount",
          "type": "uint256"
        },
        {
          "internalType": "bytes",
          "name": "data",
          "type": "bytes"
        }
      ],
      "name": "safeTransferFrom",
      "outputs": [],
      "stateMutability": "nonpayable",
      "type": "function"
    },
    {
      "inputs": [
        {
          "internalType": "address",
          "name": "operator",
          "type": "address"
        },
        {
          "internalType": "bool",
          "name": "approved",
          "type": "bool"
        }
      ],
      "name": "setApprovalForAll",
      "outputs": [],
      "stateMutability": "nonpayable",
      "type": "function"
    },
    {
      "inputs": [
        {
          "internalType": "address",
          "name": "_poolAddress",
          "type": "address"
        }
      ],
      "name": "setPool",
      "outputs": [],
      "stateMutability": "nonpayable",
      "type": "function"
    },
    {
      "inputs": [
        {
          "internalType": "uint256",
          "name": "_tokenId",
          "type": "uint256"
        },
        {
          "internalType": "string",
          "name": "_tokenURI",
          "type": "string"
        }
      ],
      "name": "setURI",
      "outputs": [],
      "stateMutability": "nonpayable",
      "type": "function"
    },
    {
      "inputs": [
        {
          "internalType": "bytes4",
          "name": "interfaceId",
          "type": "bytes4"
        }
      ],
      "name": "supportsInterface",
      "outputs": [
        {
          "internalType": "bool",
          "name": "",
          "type": "bool"
        }
      ],
      "stateMutability": "view",
      "type": "function"
    },
    {
      "inputs": [
        {
          "internalType": "uint256",
          "name": "id",
          "type": "uint256"
        }
      ],
      "name": "totalSupply",
      "outputs": [
        {
          "internalType": "uint256",
          "name": "",
          "type": "uint256"
        }
      ],
      "stateMutability": "view",
      "type": "function"
    },
    {
      "inputs": [
        {
          "internalType": "address",
          "name": "newOwner",
          "type": "address"
        }
      ],
      "name": "transferOwnership",
      "outputs": [],
      "stateMutability": "nonpayable",
      "type": "function"
    },
    {
      "inputs": [
        {
          "internalType": "uint256",
          "name": "tokenId",
          "type": "uint256"
        }
      ],
      "name": "uri",
      "outputs": [
        {
          "internalType": "string",
          "name": "",
          "type": "string"
        }
      ],
      "stateMutability": "view",
      "type": "function"
    }
  ],
  "bytecode": {
    "object": "0x60a06040819052600060808190526200001b91600491620000e2565b506040805160208101918290526000908190526200003c91600991620000e2565b503480156200004a57600080fd5b50604080516020810190915260008152620000658162000077565b50620000713362000090565b620001c4565b80516200008c906002906020840190620000e2565b5050565b600680546001600160a01b038381166001600160a01b0319831681179093556040519116919082907f8be0079c531659141344cd1fd0a4f28419497f9722a3daafe3b4186f6b6457e090600090a35050565b828054620000f09062000188565b90600052602060002090601f0160209004810192826200011457600085556200015f565b82601f106200012f57805160ff19168380011785556200015f565b828001600101855582156200015f579182015b828111156200015f57825182559160200191906001019062000142565b506200016d92915062000171565b5090565b5b808211156200016d576000815560010162000172565b600181811c908216806200019d57607f821691505b602082108103620001be57634e487b7160e01b600052602260045260246000fd5b50919050565b61266580620001d46000396000f3fe608060405234801561001057600080fd5b50600436106101575760003560e01c806385ac3709116100c3578063c6cb12c31161007c578063c6cb12c314610328578063d8e377a61461034d578063e1c7901e14610379578063e985e9c514610382578063f242432a146103be578063f2fde38b146103d157600080fd5b806385ac37091461029b578063862440e2146102be5780638da5cb5b146102d15780639ea9c798146102e2578063a22cb465146102f5578063bd85b0391461030857600080fd5b8063437d807511610115578063437d8075146102185780634437152a1461022b5780634645eff01461023e5780634e1273f41461025e5780634f558e7914610271578063715018a61461029357600080fd5b8062fdd58e1461015c57806301ffc9a7146101825780630e89341c146101a55780631755ff21146101c55780631f7fdffa146101f05780632eb2c2d614610205575b600080fd5b61016f61016a366004611a56565b6103e4565b6040519081526020015b60405180910390f35b610195610190366004611a96565b61047a565b6040519015158152602001610179565b6101b86101b3366004611ab3565b6104cc565b6040516101799190611b24565b6008546101d8906001600160a01b031681565b6040516001600160a01b039091168152602001610179565b6102036101fe366004611c83565b6105ac565b005b610203610213366004611d1c565b610648565b61016f610226366004611a56565b610694565b610203610239366004611dc6565b6106c5565b61025161024c366004611dc6565b6106ef565b6040516101799190611e1c565b61025161026c366004611e2f565b61075b565b61019561027f366004611ab3565b600090815260036020526040902054151590565b610203610885565b6102ae6102a9366004611ab3565b610899565b6040516101799493929190611efa565b6102036102cc366004611f89565b6109df565b6006546001600160a01b03166101d8565b61016f6102f0366004611fd5565b610a2c565b61020361030336600461204f565b610b6a565b61016f610316366004611ab3565b60009081526003602052604090205490565b610195610336366004611ab3565b6000908152600a6020526040902060010154421190565b6101d861035b366004611ab3565b6000908152600a60205260409020600201546001600160a01b031690565b61016f60075481565b61019561039036600461208b565b6001600160a01b03918216600090815260016020908152604080832093909416825291909152205460ff1690565b6102036103cc3660046120be565b610b79565b6102036103df366004611dc6565b610bbe565b60006001600160a01b0383166104545760405162461bcd60e51b815260206004820152602a60248201527f455243313135353a2061646472657373207a65726f206973206e6f742061207660448201526930b634b21037bbb732b960b11b60648201526084015b60405180910390fd5b506000908152602081815260408083206001600160a01b03949094168352929052205490565b60006001600160e01b03198216636cdb3d1360e11b14806104ab57506001600160e01b031982166303a24d0760e21b145b806104c657506301ffc9a760e01b6001600160e01b03198316145b92915050565b6000818152600d60205260408120805460609291906104ea90612123565b80601f016020809104026020016040519081016040528092919081815260200182805461051690612123565b80156105635780601f1061053857610100808354040283529160200191610563565b820191906000526020600020905b81548152906001019060200180831161054657829003601f168201915b5050505050905060008151116105815761057c83610c37565b6105a5565b600981604051602001610595929190612179565b6040516020818303038152906040525b9392505050565b6105b4610cfb565b60005b835181101561063557600a60008583815181106105d6576105d661221f565b602002602001015181526020019081526020016000206001015442111561062d578381815181106106095761060961221f565b602002602001015160405163aa97d4a760e01b815260040161044b91815260200190565b6001016105b7565b5061064284848484610d55565b50505050565b6001600160a01b03851633148061066457506106648533610390565b6106805760405162461bcd60e51b815260040161044b90612235565b61068d8585858585610ee9565b5050505050565b600b60205281600052604060002081815481106106b057600080fd5b90600052602060002001600091509150505481565b6106cd611093565b600880546001600160a01b0319166001600160a01b0392909216919091179055565b6001600160a01b0381166000908152600b602090815260409182902080548351818402810184019094528084526060939283018282801561074f57602002820191906000526020600020905b81548152602001906001019080831161073b575b50505050509050919050565b606081518351146107c05760405162461bcd60e51b815260206004820152602960248201527f455243313135353a206163636f756e747320616e6420696473206c656e677468604482015268040dad2e6dac2e8c6d60bb1b606482015260840161044b565b6000835167ffffffffffffffff8111156107dc576107dc611b37565b604051908082528060200260200182016040528015610805578160200160208202803683370190505b50905060005b845181101561087d576108508582815181106108295761082961221f565b60200260200101518583815181106108435761084361221f565b60200260200101516103e4565b8282815181106108625761086261221f565b602090810291909101015261087681612299565b905061080b565b509392505050565b61088d611093565b61089760006110ed565b565b600a602052600090815260409020805481906108b490612123565b80601f01602080910402602001604051908101604052809291908181526020018280546108e090612123565b801561092d5780601f106109025761010080835404028352916020019161092d565b820191906000526020600020905b81548152906001019060200180831161091057829003601f168201915b5050505060018301546002840154600385018054949592946001600160a01b0390921693509061095c90612123565b80601f016020809104026020016040519081016040528092919081815260200182805461098890612123565b80156109d55780601f106109aa576101008083540402835291602001916109d5565b820191906000526020600020905b8154815290600101906020018083116109b857829003601f168201915b5050505050905084565b6109e7611093565b610a278383838080601f01602080910402602001604051908101604052809392919081815260200183838082843760009201919091525061113f92505050565b505050565b6007546000908152600a60205260408120610a4890878761192d565b50600780546000908152600a60205260408082206001018790558254825280822060020180546001600160a01b031916331790559154815220610a8f90600301848461192d565b50336000908152600b60209081526040808320600780548254600181018455928652948490209091019390935591548251601f8601839004830281018301909352848352610af9929091869086908190840183828082843760009201919091525061113f92505050565b600754336000818152600b60205260409081902090519192917fce6cc94d2969422afc07f31077683318b763b770c558fe069fde82951646479a91610b44918b918b918b91906122b2565b60405180910390a360078054906000610b5c83612299565b909155509695505050505050565b610b753383836111a3565b5050565b6001600160a01b038516331480610b955750610b958533610390565b610bb15760405162461bcd60e51b815260040161044b90612235565b61068d8585858585611283565b610bc6611093565b6001600160a01b038116610c2b5760405162461bcd60e51b815260206004820152602660248201527f4f776e61626c653a206e6577206f776e657220697320746865207a65726f206160448201526564647265737360d01b606482015260840161044b565b610c34816110ed565b50565b600081815260056020526040812080546060929190610c5590612123565b80601f0160208091040260200160405190810160405280929190818152602001828054610c8190612123565b8015610cce5780601f10610ca357610100808354040283529160200191610cce565b820191906000526020600020905b815481529060010190602001808311610cb157829003601f168201915b505050505090506000815111610ce75761057c836113bb565b600481604051602001610595929190612179565b6008546001600160a01b031633146108975760405162461bcd60e51b815260206004820152601a60248201527f46756e64696e6720506f6f6c206f6e6c792066756e6374696f6e000000000000604482015260640161044b565b6001600160a01b038416610db55760405162461bcd60e51b815260206004820152602160248201527f455243313135353a206d696e7420746f20746865207a65726f206164647265736044820152607360f81b606482015260840161044b565b8151835114610dd65760405162461bcd60e51b815260040161044b90612330565b33610de681600087878787611445565b60005b8451811015610e8157838181518110610e0457610e0461221f565b6020026020010151600080878481518110610e2157610e2161221f565b602002602001015181526020019081526020016000206000886001600160a01b03166001600160a01b031681526020019081526020016000206000828254610e699190612378565b90915550819050610e7981612299565b915050610de9565b50846001600160a01b031660006001600160a01b0316826001600160a01b03167f4a39dc06d4c0dbc64b70af90fd698a233a518aa5d07e595d983b8c0526c8f7fb8787604051610ed2929190612390565b60405180910390a461068d81600087878787611594565b8151835114610f0a5760405162461bcd60e51b815260040161044b90612330565b6001600160a01b038416610f305760405162461bcd60e51b815260040161044b906123b5565b33610f3f818787878787611445565b60005b8451811015611025576000858281518110610f5f57610f5f61221f565b602002602001015190506000858381518110610f7d57610f7d61221f565b602090810291909101810151600084815280835260408082206001600160a01b038e168352909352919091205490915081811015610fcd5760405162461bcd60e51b815260040161044b906123fa565b6000838152602081815260408083206001600160a01b038e8116855292528083208585039055908b1682528120805484929061100a908490612378565b925050819055505050508061101e90612299565b9050610f42565b50846001600160a01b0316866001600160a01b0316826001600160a01b03167f4a39dc06d4c0dbc64b70af90fd698a233a518aa5d07e595d983b8c0526c8f7fb8787604051611075929190612390565b60405180910390a461108b818787878787611594565b505050505050565b6006546001600160a01b031633146108975760405162461bcd60e51b815260206004820181905260248201527f4f776e61626c653a2063616c6c6572206973206e6f7420746865206f776e6572604482015260640161044b565b600680546001600160a01b038381166001600160a01b0319831681179093556040519116919082907f8be0079c531659141344cd1fd0a4f28419497f9722a3daafe3b4186f6b6457e090600090a35050565b6000828152600560209081526040909120825161115e928401906119b1565b50817f6bb7ff708619ba0610cba295a58592e0451dee2622938c8755667688daf3529b61118a846104cc565b6040516111979190611b24565b60405180910390a25050565b816001600160a01b0316836001600160a01b0316036112165760405162461bcd60e51b815260206004820152602960248201527f455243313135353a2073657474696e6720617070726f76616c20737461747573604482015268103337b91039b2b63360b91b606482015260840161044b565b6001600160a01b03838116600081815260016020908152604080832094871680845294825291829020805460ff191686151590811790915591519182527f17307eab39ab6107e8899845ad3d59bd9653f200f220920489ca2b5937696c31910160405180910390a3505050565b6001600160a01b0384166112a95760405162461bcd60e51b815260040161044b906123b5565b3360006112b5856116ef565b905060006112c2856116ef565b90506112d2838989858589611445565b6000868152602081815260408083206001600160a01b038c168452909152902054858110156113135760405162461bcd60e51b815260040161044b906123fa565b6000878152602081815260408083206001600160a01b038d8116855292528083208985039055908a16825281208054889290611350908490612378565b909155505060408051888152602081018890526001600160a01b03808b16928c821692918816917fc3d58168c5ae7397731d063d5bbf3d657854427343f4c083240f7aacaa2d0f62910160405180910390a46113b0848a8a8a8a8a61173a565b505050505050505050565b6060600280546113ca90612123565b80601f01602080910402602001604051908101604052809291908181526020018280546113f690612123565b801561074f5780601f106114185761010080835404028352916020019161074f565b820191906000526020600020905b8154815290600101906020018083116114265750939695505050505050565b6114538686868686866117f5565b6001600160a01b0385166114da5760005b83518110156114d85782818151811061147f5761147f61221f565b6020026020010151600c600086848151811061149d5761149d61221f565b6020026020010151815260200190815260200160002060008282546114c29190612378565b909155506114d1905081612299565b9050611464565b505b6001600160a01b03841661108b5760005b835181101561158b5760008482815181106115085761150861221f565b6020026020010151905060008483815181106115265761152661221f565b602002602001015190506000600c6000848152602001908152602001600020549050818110156115685760405162461bcd60e51b815260040161044b90612444565b6000928352600c60205260409092209103905561158481612299565b90506114eb565b50505050505050565b6001600160a01b0384163b1561108b5760405163bc197c8160e01b81526001600160a01b0385169063bc197c81906115d8908990899088908890889060040161248c565b6020604051808303816000875af1925050508015611613575060408051601f3d908101601f19168201909252611610918101906124ea565b60015b6116bf5761161f612507565b806308c379a0036116585750611633612523565b8061163e575061165a565b8060405162461bcd60e51b815260040161044b9190611b24565b505b60405162461bcd60e51b815260206004820152603460248201527f455243313135353a207472616e7366657220746f206e6f6e2d455243313135356044820152732932b1b2b4bb32b91034b6b83632b6b2b73a32b960611b606482015260840161044b565b6001600160e01b0319811663bc197c8160e01b1461158b5760405162461bcd60e51b815260040161044b906125ad565b604080516001808252818301909252606091600091906020808301908036833701905050905082816000815181106117295761172961221f565b602090810291909101015292915050565b6001600160a01b0384163b1561108b5760405163f23a6e6160e01b81526001600160a01b0385169063f23a6e619061177e90899089908890889088906004016125f5565b6020604051808303816000875af19250505080156117b9575060408051601f3d908101601f191682019092526117b6918101906124ea565b60015b6117c55761161f612507565b6001600160e01b0319811663f23a6e6160e01b1461158b5760405162461bcd60e51b815260040161044b906125ad565b6001600160a01b03851661187c5760005b835181101561187a578281815181106118215761182161221f565b60200260200101516003600086848151811061183f5761183f61221f565b6020026020010151815260200190815260200160002060008282546118649190612378565b90915550611873905081612299565b9050611806565b505b6001600160a01b03841661108b5760005b835181101561158b5760008482815181106118aa576118aa61221f565b6020026020010151905060008483815181106118c8576118c861221f565b602002602001015190506000600360008481526020019081526020016000205490508181101561190a5760405162461bcd60e51b815260040161044b90612444565b6000928352600360205260409092209103905561192681612299565b905061188d565b82805461193990612123565b90600052602060002090601f01602090048101928261195b57600085556119a1565b82601f106119745782800160ff198235161785556119a1565b828001600101855582156119a1579182015b828111156119a1578235825591602001919060010190611986565b506119ad929150611a25565b5090565b8280546119bd90612123565b90600052602060002090601f0160209004810192826119df57600085556119a1565b82601f106119f857805160ff19168380011785556119a1565b828001600101855582156119a1579182015b828111156119a1578251825591602001919060010190611a0a565b5b808211156119ad5760008155600101611a26565b80356001600160a01b0381168114611a5157600080fd5b919050565b60008060408385031215611a6957600080fd5b611a7283611a3a565b946020939093013593505050565b6001600160e01b031981168114610c3457600080fd5b600060208284031215611aa857600080fd5b81356105a581611a80565b600060208284031215611ac557600080fd5b5035919050565b60005b83811015611ae7578181015183820152602001611acf565b838111156106425750506000910152565b60008151808452611b10816020860160208601611acc565b601f01601f19169290920160200192915050565b6020815260006105a56020830184611af8565b634e487b7160e01b600052604160045260246000fd5b601f8201601f1916810167ffffffffffffffff81118282101715611b7357611b73611b37565b6040525050565b600067ffffffffffffffff821115611b9457611b94611b37565b5060051b60200190565b600082601f830112611baf57600080fd5b81356020611bbc82611b7a565b604051611bc98282611b4d565b83815260059390931b8501820192828101915086841115611be957600080fd5b8286015b84811015611c045780358352918301918301611bed565b509695505050505050565b600082601f830112611c2057600080fd5b813567ffffffffffffffff811115611c3a57611c3a611b37565b604051611c51601f8301601f191660200182611b4d565b818152846020838601011115611c6657600080fd5b816020850160208301376000918101602001919091529392505050565b60008060008060808587031215611c9957600080fd5b611ca285611a3a565b9350602085013567ffffffffffffffff80821115611cbf57600080fd5b611ccb88838901611b9e565b94506040870135915080821115611ce157600080fd5b611ced88838901611b9e565b93506060870135915080821115611d0357600080fd5b50611d1087828801611c0f565b91505092959194509250565b600080600080600060a08688031215611d3457600080fd5b611d3d86611a3a565b9450611d4b60208701611a3a565b9350604086013567ffffffffffffffff80821115611d6857600080fd5b611d7489838a01611b9e565b94506060880135915080821115611d8a57600080fd5b611d9689838a01611b9e565b93506080880135915080821115611dac57600080fd5b50611db988828901611c0f565b9150509295509295909350565b600060208284031215611dd857600080fd5b6105a582611a3a565b600081518084526020808501945080840160005b83811015611e1157815187529582019590820190600101611df5565b509495945050505050565b6020815260006105a56020830184611de1565b60008060408385031215611e4257600080fd5b823567ffffffffffffffff80821115611e5a57600080fd5b818501915085601f830112611e6e57600080fd5b81356020611e7b82611b7a565b604051611e888282611b4d565b83815260059390931b8501820192828101915089841115611ea857600080fd5b948201945b83861015611ecd57611ebe86611a3a565b82529482019490820190611ead565b96505086013592505080821115611ee357600080fd5b50611ef085828601611b9e565b9150509250929050565b608081526000611f0d6080830187611af8565b602083018690526001600160a01b03851660408401528281036060840152611f358185611af8565b979650505050505050565b60008083601f840112611f5257600080fd5b50813567ffffffffffffffff811115611f6a57600080fd5b602083019150836020828501011115611f8257600080fd5b9250929050565b600080600060408486031215611f9e57600080fd5b83359250602084013567ffffffffffffffff811115611fbc57600080fd5b611fc886828701611f40565b9497909650939450505050565b600080600080600060608688031215611fed57600080fd5b853567ffffffffffffffff8082111561200557600080fd5b61201189838a01611f40565b909750955060208801359450604088013591508082111561203157600080fd5b5061203e88828901611f40565b969995985093965092949392505050565b6000806040838503121561206257600080fd5b61206b83611a3a565b91506020830135801515811461208057600080fd5b809150509250929050565b6000806040838503121561209e57600080fd5b6120a783611a3a565b91506120b560208401611a3a565b90509250929050565b600080600080600060a086880312156120d657600080fd5b6120df86611a3a565b94506120ed60208701611a3a565b93506040860135925060608601359150608086013567ffffffffffffffff81111561211757600080fd5b611db988828901611c0f565b600181811c9082168061213757607f821691505b60208210810361215757634e487b7160e01b600052602260045260246000fd5b50919050565b6000815161216f818560208601611acc565b9290920192915050565b600080845481600182811c91508083168061219557607f831692505b602080841082036121b457634e487b7160e01b86526022600452602486fd5b8180156121c857600181146121d957612206565b60ff19861689528489019650612206565b60008b81526020902060005b868110156121fe5781548b8201529085019083016121e5565b505084890196505b505050505050612216818561215d565b95945050505050565b634e487b7160e01b600052603260045260246000fd5b6020808252602e908201527f455243313135353a2063616c6c6572206973206e6f7420746f6b656e206f776e60408201526d195c881bdc88185c1c1c9bdd995960921b606082015260800190565b634e487b7160e01b600052601160045260246000fd5b6000600182016122ab576122ab612283565b5060010190565b60608152836060820152838560808301376000608085830181018290526020808401869052601f8701601f191684018481038301604086015285549281018390528584528184209284929160a001905b808410156123225784548252600194850194939093019290820190612302565b509998505050505050505050565b60208082526028908201527f455243313135353a2069647320616e6420616d6f756e7473206c656e677468206040820152670dad2e6dac2e8c6d60c31b606082015260800190565b6000821982111561238b5761238b612283565b500190565b6040815260006123a36040830185611de1565b82810360208401526122168185611de1565b60208082526025908201527f455243313135353a207472616e7366657220746f20746865207a65726f206164604082015264647265737360d81b606082015260800190565b6020808252602a908201527f455243313135353a20696e73756666696369656e742062616c616e636520666f60408201526939103a3930b739b332b960b11b606082015260800190565b60208082526028908201527f455243313135353a206275726e20616d6f756e74206578636565647320746f74604082015267616c537570706c7960c01b606082015260800190565b6001600160a01b0386811682528516602082015260a0604082018190526000906124b890830186611de1565b82810360608401526124ca8186611de1565b905082810360808401526124de8185611af8565b98975050505050505050565b6000602082840312156124fc57600080fd5b81516105a581611a80565b600060033d11156125205760046000803e5060005160e01c5b90565b600060443d10156125315790565b6040516003193d81016004833e81513d67ffffffffffffffff816024840111818411171561256157505050505090565b82850191508151818111156125795750505050505090565b843d87010160208285010111156125935750505050505090565b6125a260208286010187611b4d565b509095945050505050565b60208082526028908201527f455243313135353a204552433131353552656365697665722072656a656374656040820152676420746f6b656e7360c01b606082015260800190565b6001600160a01b03868116825285166020820152604081018490526060810183905260a060808201819052600090611f3590830184611af856fea2646970667358221220ba15d20a42617324e7c369b7222d07d60aa111f1887fcbfce668d0c308e27fd864736f6c634300080e0033",
    "linkReferences": {}
  },
  "methodIdentifiers": {
    "balanceOf(address,uint256)": "00fdd58e",
    "balanceOfBatch(address[],uint256[])": "4e1273f4",
    "createGrant(string,uint256,string)": "9ea9c798",
    "exists(uint256)": "4f558e79",
    "grantEnded(uint256)": "c6cb12c3",
    "grantInfo(uint256)": "85ac3709",
    "grantOwner(uint256)": "d8e377a6",
    "grantsByAddress(address,uint256)": "437d8075",
    "grantsCreatedByAddress(address)": "4645eff0",
    "isApprovedForAll(address,address)": "e985e9c5",
    "latestUnusedId()": "e1c7901e",
    "mintBatch(address,uint256[],uint256[],bytes)": "1f7fdffa",
    "owner()": "8da5cb5b",
    "poolAddress()": "1755ff21",
    "renounceOwnership()": "715018a6",
    "safeBatchTransferFrom(address,address,uint256[],uint256[],bytes)": "2eb2c2d6",
    "safeTransferFrom(address,address,uint256,uint256,bytes)": "f242432a",
    "setApprovalForAll(address,bool)": "a22cb465",
    "setPool(address)": "4437152a",
    "setURI(uint256,string)": "862440e2",
    "supportsInterface(bytes4)": "01ffc9a7",
    "totalSupply(uint256)": "bd85b039",
    "transferOwnership(address)": "f2fde38b",
    "uri(uint256)": "0e89341c"
  },
  "id": 37
}