{
  "abi": [
    {
      "inputs": [
        {
          "internalType": "string",
          "name": "uri_",
          "type": "string"
        }
      ],
      "stateMutability": "nonpayable",
      "type": "constructor"
    },
    {
      "inputs": [
        {
          "internalType": "uint256",
          "name": "_grantId",
          "type": "uint256"
        }
      ],
      "name": "RoundEnded",
      "type": "error"
    },
    {
      "anonymous": false,
      "inputs": [
        {
          "indexed": true,
          "internalType": "address",
          "name": "account",
          "type": "address"
        },
        {
          "indexed": true,
          "internalType": "address",
          "name": "operator",
          "type": "address"
        },
        {
          "indexed": false,
          "internalType": "bool",
          "name": "approved",
          "type": "bool"
        }
      ],
      "name": "ApprovalForAll",
      "type": "event"
    },
    {
      "anonymous": false,
      "inputs": [
        {
          "indexed": false,
          "internalType": "string",
          "name": "_grantName",
          "type": "string"
        },
        {
          "indexed": true,
          "internalType": "uint256",
          "name": "_grantId",
          "type": "uint256"
        },
        {
          "indexed": false,
          "internalType": "uint256",
          "name": "_grantEndTime",
          "type": "uint256"
        },
        {
          "indexed": true,
          "internalType": "address",
          "name": "_grantOwner",
          "type": "address"
        },
        {
          "indexed": false,
          "internalType": "uint256[]",
          "name": "_grantsByAddress",
          "type": "uint256[]"
        }
      ],
      "name": "GrantCreated",
      "type": "event"
    },
    {
      "anonymous": false,
      "inputs": [
        {
          "indexed": true,
          "internalType": "address",
          "name": "previousOwner",
          "type": "address"
        },
        {
          "indexed": true,
          "internalType": "address",
          "name": "newOwner",
          "type": "address"
        }
      ],
      "name": "OwnershipTransferred",
      "type": "event"
    },
    {
      "anonymous": false,
      "inputs": [
        {
          "indexed": true,
          "internalType": "address",
          "name": "operator",
          "type": "address"
        },
        {
          "indexed": true,
          "internalType": "address",
          "name": "from",
          "type": "address"
        },
        {
          "indexed": true,
          "internalType": "address",
          "name": "to",
          "type": "address"
        },
        {
          "indexed": false,
          "internalType": "uint256[]",
          "name": "ids",
          "type": "uint256[]"
        },
        {
          "indexed": false,
          "internalType": "uint256[]",
          "name": "values",
          "type": "uint256[]"
        }
      ],
      "name": "TransferBatch",
      "type": "event"
    },
    {
      "anonymous": false,
      "inputs": [
        {
          "indexed": true,
          "internalType": "address",
          "name": "operator",
          "type": "address"
        },
        {
          "indexed": true,
          "internalType": "address",
          "name": "from",
          "type": "address"
        },
        {
          "indexed": true,
          "internalType": "address",
          "name": "to",
          "type": "address"
        },
        {
          "indexed": false,
          "internalType": "uint256",
          "name": "id",
          "type": "uint256"
        },
        {
          "indexed": false,
          "internalType": "uint256",
          "name": "value",
          "type": "uint256"
        }
      ],
      "name": "TransferSingle",
      "type": "event"
    },
    {
      "anonymous": false,
      "inputs": [
        {
          "indexed": false,
          "internalType": "string",
          "name": "value",
          "type": "string"
        },
        {
          "indexed": true,
          "internalType": "uint256",
          "name": "id",
          "type": "uint256"
        }
      ],
      "name": "URI",
      "type": "event"
    },
    {
      "inputs": [
        {
          "internalType": "address",
          "name": "account",
          "type": "address"
        },
        {
          "internalType": "uint256",
          "name": "id",
          "type": "uint256"
        }
      ],
      "name": "balanceOf",
      "outputs": [
        {
          "internalType": "uint256",
          "name": "",
          "type": "uint256"
        }
      ],
      "stateMutability": "view",
      "type": "function"
    },
    {
      "inputs": [
        {
          "internalType": "address[]",
          "name": "accounts",
          "type": "address[]"
        },
        {
          "internalType": "uint256[]",
          "name": "ids",
          "type": "uint256[]"
        }
      ],
      "name": "balanceOfBatch",
      "outputs": [
        {
          "internalType": "uint256[]",
          "name": "",
          "type": "uint256[]"
        }
      ],
      "stateMutability": "view",
      "type": "function"
    },
    {
      "inputs": [
        {
          "internalType": "string",
          "name": "_grantName",
          "type": "string"
        },
        {
          "internalType": "uint256",
          "name": "_grantEndTime",
          "type": "uint256"
        },
        {
          "internalType": "string",
          "name": "_tokenURI",
          "type": "string"
        }
      ],
      "name": "createGrant",
      "outputs": [
        {
          "internalType": "uint256",
          "name": "_grantId",
          "type": "uint256"
        }
      ],
      "stateMutability": "nonpayable",
      "type": "function"
    },
    {
      "inputs": [
        {
          "internalType": "uint256",
          "name": "id",
          "type": "uint256"
        }
      ],
      "name": "exists",
      "outputs": [
        {
          "internalType": "bool",
          "name": "",
          "type": "bool"
        }
      ],
      "stateMutability": "view",
      "type": "function"
    },
    {
      "inputs": [
        {
          "internalType": "uint256",
          "name": "_grandId",
          "type": "uint256"
        }
      ],
      "name": "grantEnded",
      "outputs": [
        {
          "internalType": "bool",
          "name": "_ended",
          "type": "bool"
        }
      ],
      "stateMutability": "view",
      "type": "function"
    },
    {
      "inputs": [
        {
          "internalType": "uint256",
          "name": "",
          "type": "uint256"
        }
      ],
      "name": "grantInfo",
      "outputs": [
        {
          "internalType": "string",
          "name": "grantName",
          "type": "string"
        },
        {
          "internalType": "uint256",
          "name": "grantEndTime",
          "type": "uint256"
        },
        {
          "internalType": "address",
          "name": "grantOwner",
          "type": "address"
        }
      ],
      "stateMutability": "view",
      "type": "function"
    },
    {
      "inputs": [
        {
          "internalType": "uint256",
          "name": "_grandId",
          "type": "uint256"
        }
      ],
      "name": "grantOwner",
      "outputs": [
        {
          "internalType": "address",
          "name": "_creator",
          "type": "address"
        }
      ],
      "stateMutability": "view",
      "type": "function"
    },
    {
      "inputs": [
        {
          "internalType": "address",
          "name": "",
          "type": "address"
        },
        {
          "internalType": "uint256",
          "name": "",
          "type": "uint256"
        }
      ],
      "name": "grantsByAddress",
      "outputs": [
        {
          "internalType": "uint256",
          "name": "",
          "type": "uint256"
        }
      ],
      "stateMutability": "view",
      "type": "function"
    },
    {
      "inputs": [
        {
          "internalType": "address",
          "name": "account",
          "type": "address"
        },
        {
          "internalType": "address",
          "name": "operator",
          "type": "address"
        }
      ],
      "name": "isApprovedForAll",
      "outputs": [
        {
          "internalType": "bool",
          "name": "",
          "type": "bool"
        }
      ],
      "stateMutability": "view",
      "type": "function"
    },
    {
      "inputs": [],
      "name": "latestUnusedId",
      "outputs": [
        {
          "internalType": "uint256",
          "name": "",
          "type": "uint256"
        }
      ],
      "stateMutability": "view",
      "type": "function"
    },
    {
      "inputs": [
        {
          "internalType": "address",
          "name": "to",
          "type": "address"
        },
        {
          "internalType": "uint256[]",
          "name": "ids",
          "type": "uint256[]"
        },
        {
          "internalType": "uint256[]",
          "name": "amounts",
          "type": "uint256[]"
        },
        {
          "internalType": "bytes",
          "name": "data",
          "type": "bytes"
        }
      ],
      "name": "mintBatch",
      "outputs": [],
      "stateMutability": "nonpayable",
      "type": "function"
    },
    {
      "inputs": [],
      "name": "owner",
      "outputs": [
        {
          "internalType": "address",
          "name": "",
          "type": "address"
        }
      ],
      "stateMutability": "view",
      "type": "function"
    },
    {
      "inputs": [],
      "name": "poolAddress",
      "outputs": [
        {
          "internalType": "address",
          "name": "",
          "type": "address"
        }
      ],
      "stateMutability": "view",
      "type": "function"
    },
    {
      "inputs": [],
      "name": "renounceOwnership",
      "outputs": [],
      "stateMutability": "nonpayable",
      "type": "function"
    },
    {
      "inputs": [
        {
          "internalType": "address",
          "name": "from",
          "type": "address"
        },
        {
          "internalType": "address",
          "name": "to",
          "type": "address"
        },
        {
          "internalType": "uint256[]",
          "name": "ids",
          "type": "uint256[]"
        },
        {
          "internalType": "uint256[]",
          "name": "amounts",
          "type": "uint256[]"
        },
        {
          "internalType": "bytes",
          "name": "data",
          "type": "bytes"
        }
      ],
      "name": "safeBatchTransferFrom",
      "outputs": [],
      "stateMutability": "nonpayable",
      "type": "function"
    },
    {
      "inputs": [
        {
          "internalType": "address",
          "name": "from",
          "type": "address"
        },
        {
          "internalType": "address",
          "name": "to",
          "type": "address"
        },
        {
          "internalType": "uint256",
          "name": "id",
          "type": "uint256"
        },
        {
          "internalType": "uint256",
          "name": "amount",
          "type": "uint256"
        },
        {
          "internalType": "bytes",
          "name": "data",
          "type": "bytes"
        }
      ],
      "name": "safeTransferFrom",
      "outputs": [],
      "stateMutability": "nonpayable",
      "type": "function"
    },
    {
      "inputs": [
        {
          "internalType": "address",
          "name": "operator",
          "type": "address"
        },
        {
          "internalType": "bool",
          "name": "approved",
          "type": "bool"
        }
      ],
      "name": "setApprovalForAll",
      "outputs": [],
      "stateMutability": "nonpayable",
      "type": "function"
    },
    {
      "inputs": [
        {
          "internalType": "address",
          "name": "_poolAddress",
          "type": "address"
        }
      ],
      "name": "setPool",
      "outputs": [],
      "stateMutability": "nonpayable",
      "type": "function"
    },
    {
      "inputs": [
        {
          "internalType": "bytes4",
          "name": "interfaceId",
          "type": "bytes4"
        }
      ],
      "name": "supportsInterface",
      "outputs": [
        {
          "internalType": "bool",
          "name": "",
          "type": "bool"
        }
      ],
      "stateMutability": "view",
      "type": "function"
    },
    {
      "inputs": [
        {
          "internalType": "uint256",
          "name": "id",
          "type": "uint256"
        }
      ],
      "name": "totalSupply",
      "outputs": [
        {
          "internalType": "uint256",
          "name": "",
          "type": "uint256"
        }
      ],
      "stateMutability": "view",
      "type": "function"
    },
    {
      "inputs": [
        {
          "internalType": "address",
          "name": "newOwner",
          "type": "address"
        }
      ],
      "name": "transferOwnership",
      "outputs": [],
      "stateMutability": "nonpayable",
      "type": "function"
    },
    {
      "inputs": [
        {
          "internalType": "uint256",
          "name": "tokenId",
          "type": "uint256"
        }
      ],
      "name": "uri",
      "outputs": [
        {
          "internalType": "string",
          "name": "",
          "type": "string"
        }
      ],
      "stateMutability": "view",
      "type": "function"
    }
  ],
  "bytecode": {
    "object": "0x60a06040819052600060808190526200001b91600491620000f7565b506040805160208101918290526000908190526200003c91600991620000f7565b503480156200004a57600080fd5b506040516200274c3803806200274c8339810160408190526200006d91620001b3565b8062000079816200008c565b506200008533620000a5565b50620002cb565b8051620000a1906002906020840190620000f7565b5050565b600680546001600160a01b038381166001600160a01b0319831681179093556040519116919082907f8be0079c531659141344cd1fd0a4f28419497f9722a3daafe3b4186f6b6457e090600090a35050565b82805462000105906200028f565b90600052602060002090601f01602090048101928262000129576000855562000174565b82601f106200014457805160ff191683800117855562000174565b8280016001018555821562000174579182015b828111156200017457825182559160200191906001019062000157565b506200018292915062000186565b5090565b5b8082111562000182576000815560010162000187565b634e487b7160e01b600052604160045260246000fd5b60006020808385031215620001c757600080fd5b82516001600160401b0380821115620001df57600080fd5b818501915085601f830112620001f457600080fd5b8151818111156200020957620002096200019d565b604051601f8201601f19908116603f011681019083821181831017156200023457620002346200019d565b8160405282815288868487010111156200024d57600080fd5b600093505b8284101562000271578484018601518185018701529285019262000252565b82841115620002835760008684830101525b98975050505050505050565b600181811c90821680620002a457607f821691505b602082108103620002c557634e487b7160e01b600052602260045260246000fd5b50919050565b61247180620002db6000396000f3fe608060405234801561001057600080fd5b50600436106101415760003560e01c806385ac3709116100b8578063c6cb12c31161007c578063c6cb12c3146102eb578063d8e377a614610310578063e1c7901e1461033c578063e985e9c514610345578063f242432a14610381578063f2fde38b1461039457600080fd5b806385ac3709146102725780638da5cb5b146102945780639ea9c798146102a5578063a22cb465146102b8578063bd85b039146102cb57600080fd5b80632eb2c2d61161010a5780632eb2c2d6146101ef578063437d8075146102025780634437152a146102155780634e1273f4146102285780634f558e7914610248578063715018a61461026a57600080fd5b8062fdd58e1461014657806301ffc9a71461016c5780630e89341c1461018f5780631755ff21146101af5780631f7fdffa146101da575b600080fd5b6101596101543660046118b6565b6103a7565b6040519081526020015b60405180910390f35b61017f61017a3660046118f6565b61043d565b6040519015158152602001610163565b6101a261019d366004611913565b61048f565b6040516101639190611984565b6008546101c2906001600160a01b031681565b6040516001600160a01b039091168152602001610163565b6101ed6101e8366004611ae3565b61056f565b005b6101ed6101fd366004611b7c565b61065d565b6101596102103660046118b6565b6106a9565b6101ed610223366004611c26565b6106da565b61023b610236366004611c41565b610704565b6040516101639190611d47565b61017f610256366004611913565b600090815260036020526040902054151590565b6101ed61082e565b610285610280366004611913565b610842565b60405161016393929190611d5a565b6006546001600160a01b03166101c2565b6101596102b3366004611dd6565b6108f6565b6101ed6102c6366004611e50565b610a1a565b6101596102d9366004611913565b60009081526003602052604090205490565b61017f6102f9366004611913565b6000908152600a6020526040902060010154421190565b6101c261031e366004611913565b6000908152600a60205260409020600201546001600160a01b031690565b61015960075481565b61017f610353366004611e8c565b6001600160a01b03918216600090815260016020908152604080832093909416825291909152205460ff1690565b6101ed61038f366004611ebf565b610a29565b6101ed6103a2366004611c26565b610a6e565b60006001600160a01b0383166104175760405162461bcd60e51b815260206004820152602a60248201527f455243313135353a2061646472657373207a65726f206973206e6f742061207660448201526930b634b21037bbb732b960b11b60648201526084015b60405180910390fd5b506000908152602081815260408083206001600160a01b03949094168352929052205490565b60006001600160e01b03198216636cdb3d1360e11b148061046e57506001600160e01b031982166303a24d0760e21b145b8061048957506301ffc9a760e01b6001600160e01b03198316145b92915050565b6000818152600d60205260408120805460609291906104ad90611f24565b80601f01602080910402602001604051908101604052809291908181526020018280546104d990611f24565b80156105265780601f106104fb57610100808354040283529160200191610526565b820191906000526020600020905b81548152906001019060200180831161050957829003601f168201915b5050505050905060008151116105445761053f83610ae7565b610568565b600981604051602001610558929190611f7a565b6040516020818303038152906040525b9392505050565b6008546001600160a01b031633146105c95760405162461bcd60e51b815260206004820152601a60248201527f46756e64696e6720506f6f6c206f6e6c792066756e6374696f6e000000000000604482015260640161040e565b60005b835181101561064a57600a60008583815181106105eb576105eb612020565b60200260200101518152602001908152602001600020600101544211156106425783818151811061061e5761061e612020565b602002602001015160405163aa97d4a760e01b815260040161040e91815260200190565b6001016105cc565b5061065784848484610bab565b50505050565b6001600160a01b03851633148061067957506106798533610353565b6106955760405162461bcd60e51b815260040161040e90612036565b6106a28585858585610d3f565b5050505050565b600b60205281600052604060002081815481106106c557600080fd5b90600052602060002001600091509150505481565b6106e2610ee9565b600880546001600160a01b0319166001600160a01b0392909216919091179055565b606081518351146107695760405162461bcd60e51b815260206004820152602960248201527f455243313135353a206163636f756e747320616e6420696473206c656e677468604482015268040dad2e6dac2e8c6d60bb1b606482015260840161040e565b6000835167ffffffffffffffff81111561078557610785611997565b6040519080825280602002602001820160405280156107ae578160200160208202803683370190505b50905060005b8451811015610826576107f98582815181106107d2576107d2612020565b60200260200101518583815181106107ec576107ec612020565b60200260200101516103a7565b82828151811061080b5761080b612020565b602090810291909101015261081f8161209a565b90506107b4565b509392505050565b610836610ee9565b6108406000610f43565b565b600a6020526000908152604090208054819061085d90611f24565b80601f016020809104026020016040519081016040528092919081815260200182805461088990611f24565b80156108d65780601f106108ab576101008083540402835291602001916108d6565b820191906000526020600020905b8154815290600101906020018083116108b957829003601f168201915b5050505060018301546002909301549192916001600160a01b0316905083565b6007546000908152600a6020526040812061091290878761178d565b50600780546000908152600a6020908152604080832060019081018990558454845281842060020180546001600160a01b031916339081179091558452600b835281842085548154928301825590855293839020019290925591548151601f86018490048402810184019092528482526109a9929091908690869081908401838280828437600092019190915250610f9592505050565b600754336000818152600b60205260409081902090519192917fce6cc94d2969422afc07f31077683318b763b770c558fe069fde82951646479a916109f4918b918b918b91906120b3565b60405180910390a360078054906000610a0c8361209a565b909155509695505050505050565b610a25338383610ff9565b5050565b6001600160a01b038516331480610a455750610a458533610353565b610a615760405162461bcd60e51b815260040161040e90612036565b6106a285858585856110d9565b610a76610ee9565b6001600160a01b038116610adb5760405162461bcd60e51b815260206004820152602660248201527f4f776e61626c653a206e6577206f776e657220697320746865207a65726f206160448201526564647265737360d01b606482015260840161040e565b610ae481610f43565b50565b600081815260056020526040812080546060929190610b0590611f24565b80601f0160208091040260200160405190810160405280929190818152602001828054610b3190611f24565b8015610b7e5780601f10610b5357610100808354040283529160200191610b7e565b820191906000526020600020905b815481529060010190602001808311610b6157829003601f168201915b505050505090506000815111610b975761053f83611211565b600481604051602001610558929190611f7a565b6001600160a01b038416610c0b5760405162461bcd60e51b815260206004820152602160248201527f455243313135353a206d696e7420746f20746865207a65726f206164647265736044820152607360f81b606482015260840161040e565b8151835114610c2c5760405162461bcd60e51b815260040161040e90612131565b33610c3c816000878787876112a5565b60005b8451811015610cd757838181518110610c5a57610c5a612020565b6020026020010151600080878481518110610c7757610c77612020565b602002602001015181526020019081526020016000206000886001600160a01b03166001600160a01b031681526020019081526020016000206000828254610cbf9190612179565b90915550819050610ccf8161209a565b915050610c3f565b50846001600160a01b031660006001600160a01b0316826001600160a01b03167f4a39dc06d4c0dbc64b70af90fd698a233a518aa5d07e595d983b8c0526c8f7fb8787604051610d28929190612191565b60405180910390a46106a2816000878787876113f4565b8151835114610d605760405162461bcd60e51b815260040161040e90612131565b6001600160a01b038416610d865760405162461bcd60e51b815260040161040e906121b6565b33610d958187878787876112a5565b60005b8451811015610e7b576000858281518110610db557610db5612020565b602002602001015190506000858381518110610dd357610dd3612020565b602090810291909101810151600084815280835260408082206001600160a01b038e168352909352919091205490915081811015610e235760405162461bcd60e51b815260040161040e906121fb565b6000838152602081815260408083206001600160a01b038e8116855292528083208585039055908b16825281208054849290610e60908490612179565b9250508190555050505080610e749061209a565b9050610d98565b50846001600160a01b0316866001600160a01b0316826001600160a01b03167f4a39dc06d4c0dbc64b70af90fd698a233a518aa5d07e595d983b8c0526c8f7fb8787604051610ecb929190612191565b60405180910390a4610ee18187878787876113f4565b505050505050565b6006546001600160a01b031633146108405760405162461bcd60e51b815260206004820181905260248201527f4f776e61626c653a2063616c6c6572206973206e6f7420746865206f776e6572604482015260640161040e565b600680546001600160a01b038381166001600160a01b0319831681179093556040519116919082907f8be0079c531659141344cd1fd0a4f28419497f9722a3daafe3b4186f6b6457e090600090a35050565b60008281526005602090815260409091208251610fb492840190611811565b50817f6bb7ff708619ba0610cba295a58592e0451dee2622938c8755667688daf3529b610fe08461048f565b604051610fed9190611984565b60405180910390a25050565b816001600160a01b0316836001600160a01b03160361106c5760405162461bcd60e51b815260206004820152602960248201527f455243313135353a2073657474696e6720617070726f76616c20737461747573604482015268103337b91039b2b63360b91b606482015260840161040e565b6001600160a01b03838116600081815260016020908152604080832094871680845294825291829020805460ff191686151590811790915591519182527f17307eab39ab6107e8899845ad3d59bd9653f200f220920489ca2b5937696c31910160405180910390a3505050565b6001600160a01b0384166110ff5760405162461bcd60e51b815260040161040e906121b6565b33600061110b8561154f565b905060006111188561154f565b90506111288389898585896112a5565b6000868152602081815260408083206001600160a01b038c168452909152902054858110156111695760405162461bcd60e51b815260040161040e906121fb565b6000878152602081815260408083206001600160a01b038d8116855292528083208985039055908a168252812080548892906111a6908490612179565b909155505060408051888152602081018890526001600160a01b03808b16928c821692918816917fc3d58168c5ae7397731d063d5bbf3d657854427343f4c083240f7aacaa2d0f62910160405180910390a4611206848a8a8a8a8a61159a565b505050505050505050565b60606002805461122090611f24565b80601f016020809104026020016040519081016040528092919081815260200182805461124c90611f24565b80156112995780601f1061126e57610100808354040283529160200191611299565b820191906000526020600020905b81548152906001019060200180831161127c57829003601f168201915b50505050509050919050565b6112b3868686868686611655565b6001600160a01b03851661133a5760005b8351811015611338578281815181106112df576112df612020565b6020026020010151600c60008684815181106112fd576112fd612020565b6020026020010151815260200190815260200160002060008282546113229190612179565b9091555061133190508161209a565b90506112c4565b505b6001600160a01b038416610ee15760005b83518110156113eb57600084828151811061136857611368612020565b60200260200101519050600084838151811061138657611386612020565b602002602001015190506000600c6000848152602001908152602001600020549050818110156113c85760405162461bcd60e51b815260040161040e90612245565b6000928352600c6020526040909220910390556113e48161209a565b905061134b565b50505050505050565b6001600160a01b0384163b15610ee15760405163bc197c8160e01b81526001600160a01b0385169063bc197c8190611438908990899088908890889060040161228d565b6020604051808303816000875af1925050508015611473575060408051601f3d908101601f19168201909252611470918101906122eb565b60015b61151f5761147f612308565b806308c379a0036114b85750611493612324565b8061149e57506114ba565b8060405162461bcd60e51b815260040161040e9190611984565b505b60405162461bcd60e51b815260206004820152603460248201527f455243313135353a207472616e7366657220746f206e6f6e2d455243313135356044820152732932b1b2b4bb32b91034b6b83632b6b2b73a32b960611b606482015260840161040e565b6001600160e01b0319811663bc197c8160e01b146113eb5760405162461bcd60e51b815260040161040e906123ae565b6040805160018082528183019092526060916000919060208083019080368337019050509050828160008151811061158957611589612020565b602090810291909101015292915050565b6001600160a01b0384163b15610ee15760405163f23a6e6160e01b81526001600160a01b0385169063f23a6e61906115de90899089908890889088906004016123f6565b6020604051808303816000875af1925050508015611619575060408051601f3d908101601f19168201909252611616918101906122eb565b60015b6116255761147f612308565b6001600160e01b0319811663f23a6e6160e01b146113eb5760405162461bcd60e51b815260040161040e906123ae565b6001600160a01b0385166116dc5760005b83518110156116da5782818151811061168157611681612020565b60200260200101516003600086848151811061169f5761169f612020565b6020026020010151815260200190815260200160002060008282546116c49190612179565b909155506116d390508161209a565b9050611666565b505b6001600160a01b038416610ee15760005b83518110156113eb57600084828151811061170a5761170a612020565b60200260200101519050600084838151811061172857611728612020565b602002602001015190506000600360008481526020019081526020016000205490508181101561176a5760405162461bcd60e51b815260040161040e90612245565b600092835260036020526040909220910390556117868161209a565b90506116ed565b82805461179990611f24565b90600052602060002090601f0160209004810192826117bb5760008555611801565b82601f106117d45782800160ff19823516178555611801565b82800160010185558215611801579182015b828111156118015782358255916020019190600101906117e6565b5061180d929150611885565b5090565b82805461181d90611f24565b90600052602060002090601f01602090048101928261183f5760008555611801565b82601f1061185857805160ff1916838001178555611801565b82800160010185558215611801579182015b8281111561180157825182559160200191906001019061186a565b5b8082111561180d5760008155600101611886565b80356001600160a01b03811681146118b157600080fd5b919050565b600080604083850312156118c957600080fd5b6118d28361189a565b946020939093013593505050565b6001600160e01b031981168114610ae457600080fd5b60006020828403121561190857600080fd5b8135610568816118e0565b60006020828403121561192557600080fd5b5035919050565b60005b8381101561194757818101518382015260200161192f565b838111156106575750506000910152565b6000815180845261197081602086016020860161192c565b601f01601f19169290920160200192915050565b6020815260006105686020830184611958565b634e487b7160e01b600052604160045260246000fd5b601f8201601f1916810167ffffffffffffffff811182821017156119d3576119d3611997565b6040525050565b600067ffffffffffffffff8211156119f4576119f4611997565b5060051b60200190565b600082601f830112611a0f57600080fd5b81356020611a1c826119da565b604051611a2982826119ad565b83815260059390931b8501820192828101915086841115611a4957600080fd5b8286015b84811015611a645780358352918301918301611a4d565b509695505050505050565b600082601f830112611a8057600080fd5b813567ffffffffffffffff811115611a9a57611a9a611997565b604051611ab1601f8301601f1916602001826119ad565b818152846020838601011115611ac657600080fd5b816020850160208301376000918101602001919091529392505050565b60008060008060808587031215611af957600080fd5b611b028561189a565b9350602085013567ffffffffffffffff80821115611b1f57600080fd5b611b2b888389016119fe565b94506040870135915080821115611b4157600080fd5b611b4d888389016119fe565b93506060870135915080821115611b6357600080fd5b50611b7087828801611a6f565b91505092959194509250565b600080600080600060a08688031215611b9457600080fd5b611b9d8661189a565b9450611bab6020870161189a565b9350604086013567ffffffffffffffff80821115611bc857600080fd5b611bd489838a016119fe565b94506060880135915080821115611bea57600080fd5b611bf689838a016119fe565b93506080880135915080821115611c0c57600080fd5b50611c1988828901611a6f565b9150509295509295909350565b600060208284031215611c3857600080fd5b6105688261189a565b60008060408385031215611c5457600080fd5b823567ffffffffffffffff80821115611c6c57600080fd5b818501915085601f830112611c8057600080fd5b81356020611c8d826119da565b604051611c9a82826119ad565b83815260059390931b8501820192828101915089841115611cba57600080fd5b948201945b83861015611cdf57611cd08661189a565b82529482019490820190611cbf565b96505086013592505080821115611cf557600080fd5b50611d02858286016119fe565b9150509250929050565b600081518084526020808501945080840160005b83811015611d3c57815187529582019590820190600101611d20565b509495945050505050565b6020815260006105686020830184611d0c565b606081526000611d6d6060830186611958565b6020830194909452506001600160a01b0391909116604090910152919050565b60008083601f840112611d9f57600080fd5b50813567ffffffffffffffff811115611db757600080fd5b602083019150836020828501011115611dcf57600080fd5b9250929050565b600080600080600060608688031215611dee57600080fd5b853567ffffffffffffffff80821115611e0657600080fd5b611e1289838a01611d8d565b9097509550602088013594506040880135915080821115611e3257600080fd5b50611e3f88828901611d8d565b969995985093965092949392505050565b60008060408385031215611e6357600080fd5b611e6c8361189a565b915060208301358015158114611e8157600080fd5b809150509250929050565b60008060408385031215611e9f57600080fd5b611ea88361189a565b9150611eb66020840161189a565b90509250929050565b600080600080600060a08688031215611ed757600080fd5b611ee08661189a565b9450611eee6020870161189a565b93506040860135925060608601359150608086013567ffffffffffffffff811115611f1857600080fd5b611c1988828901611a6f565b600181811c90821680611f3857607f821691505b602082108103611f5857634e487b7160e01b600052602260045260246000fd5b50919050565b60008151611f7081856020860161192c565b9290920192915050565b600080845481600182811c915080831680611f9657607f831692505b60208084108203611fb557634e487b7160e01b86526022600452602486fd5b818015611fc95760018114611fda57612007565b60ff19861689528489019650612007565b60008b81526020902060005b86811015611fff5781548b820152908501908301611fe6565b505084890196505b5050505050506120178185611f5e565b95945050505050565b634e487b7160e01b600052603260045260246000fd5b6020808252602e908201527f455243313135353a2063616c6c6572206973206e6f7420746f6b656e206f776e60408201526d195c881bdc88185c1c1c9bdd995960921b606082015260800190565b634e487b7160e01b600052601160045260246000fd5b6000600182016120ac576120ac612084565b5060010190565b60608152836060820152838560808301376000608085830181018290526020808401869052601f8701601f191684018481038301604086015285549281018390528584528184209284929160a001905b808410156121235784548252600194850194939093019290820190612103565b509998505050505050505050565b60208082526028908201527f455243313135353a2069647320616e6420616d6f756e7473206c656e677468206040820152670dad2e6dac2e8c6d60c31b606082015260800190565b6000821982111561218c5761218c612084565b500190565b6040815260006121a46040830185611d0c565b82810360208401526120178185611d0c565b60208082526025908201527f455243313135353a207472616e7366657220746f20746865207a65726f206164604082015264647265737360d81b606082015260800190565b6020808252602a908201527f455243313135353a20696e73756666696369656e742062616c616e636520666f60408201526939103a3930b739b332b960b11b606082015260800190565b60208082526028908201527f455243313135353a206275726e20616d6f756e74206578636565647320746f74604082015267616c537570706c7960c01b606082015260800190565b6001600160a01b0386811682528516602082015260a0604082018190526000906122b990830186611d0c565b82810360608401526122cb8186611d0c565b905082810360808401526122df8185611958565b98975050505050505050565b6000602082840312156122fd57600080fd5b8151610568816118e0565b600060033d11156123215760046000803e5060005160e01c5b90565b600060443d10156123325790565b6040516003193d81016004833e81513d67ffffffffffffffff816024840111818411171561236257505050505090565b828501915081518181111561237a5750505050505090565b843d87010160208285010111156123945750505050505090565b6123a3602082860101876119ad565b509095945050505050565b60208082526028908201527f455243313135353a204552433131353552656365697665722072656a656374656040820152676420746f6b656e7360c01b606082015260800190565b6001600160a01b03868116825285166020820152604081018490526060810183905260a06080820181905260009061243090830184611958565b97965050505050505056fea26469706673582212206d4bc6f5ea867c665c29a166c1e51433870441b96e953f4ccd78a1357e47bc3a64736f6c634300080e0033",
    "linkReferences": {}
  },
  "methodIdentifiers": {
    "balanceOf(address,uint256)": "00fdd58e",
    "balanceOfBatch(address[],uint256[])": "4e1273f4",
    "createGrant(string,uint256,string)": "9ea9c798",
    "exists(uint256)": "4f558e79",
    "grantEnded(uint256)": "c6cb12c3",
    "grantInfo(uint256)": "85ac3709",
    "grantOwner(uint256)": "d8e377a6",
    "grantsByAddress(address,uint256)": "437d8075",
    "isApprovedForAll(address,address)": "e985e9c5",
    "latestUnusedId()": "e1c7901e",
    "mintBatch(address,uint256[],uint256[],bytes)": "1f7fdffa",
    "owner()": "8da5cb5b",
    "poolAddress()": "1755ff21",
    "renounceOwnership()": "715018a6",
    "safeBatchTransferFrom(address,address,uint256[],uint256[],bytes)": "2eb2c2d6",
    "safeTransferFrom(address,address,uint256,uint256,bytes)": "f242432a",
    "setApprovalForAll(address,bool)": "a22cb465",
    "setPool(address)": "4437152a",
    "supportsInterface(bytes4)": "01ffc9a7",
    "totalSupply(uint256)": "bd85b039",
    "transferOwnership(address)": "f2fde38b",
    "uri(uint256)": "0e89341c"
  },
  "id": 38
}